:100000000C945F010C9490010C9490010C9490015D
:100010000C9490010C9490010C9490010C9490011C
:100020000C9490010C9490010C9490010C9490010C
:100030000C9490010C9490010C9490010C949001FC
:100040000C9490010C9490010C9490010C949001EC
:100050000C9490010C9490010C9490010C94BA10A3
:100060000C9490010C942E110C9404110C9490019A
:100070000C9490010C9490010C9490010C949001BC
:100080000C9490010C9490010C9490010C949001AC
:100090000C9490010C9490010C9490010C9490019C
:1000A0000C9490010C9490010C9490010C9490018C
:1000B0000C9490010C9490010C9490010C9490017C
:1000C0000C9490010C9490010C9490010C9490016C
:1000D0000C9490010C9490010C9490010C9490015C
:1000E0000C9490010C9422030C94EB010C94CF011E
:1000F0000C9431030C94D8030C94CB010C948B0317
:100100000C9445030C94C2010C94F5020C94530317
:100110000C942C040C9464110C94DD010C94BE011D
:100120000C94F1010C94E7010C94E3010C94BA01D6
:100130000C94F5010C94D5010C94B6010C94C501F6
:100140000C94D9010C94780B0C94F0010C942B04B2
:100150000C94B0010000803FCDCCCC3D6F12833AAF
:1001600095BFD6337D1D9026B3CE010C0000210033
:10017000240027002A002D00300033000101000078
:10018000040107010A0100002200250028002B00BD
:100190002E003100340002010000050108010B01AE
:1001A000000020002300260029002C002F00320030
:1001B0000001000003010601090105050505070509
:1001C00008080808020202020A0A080804040404D3
:1001D00001010101010101010303030303030303FF
:1001E000040707070C0C0C0C0C0C0C0C020202028E
:1001F00006060606060606060B0B0B0B0B0B0B0B77
:100200000102102020080810204010204080020128
:10021000020108040201010204081020408080400D
:10022000201008040201800402018040201008040C
:1002300002010804020101020408102040800102AA
:1002400004081020408000000A0B02090C0D0E0863
:10025000070304010000000000000000000000008F
:10026000000000000000000000000000000000008E
:10027000000012111000000000000000000000004B
:10028000000000000000000000000000000020410D
:100290000000C84200401C4620BCBE4CCA1B0E5A7F
:1002A000AEC59D74CDCCCC3D0AD7233C17B7D13811
:1002B00077CC2B329595E6241FB14F0A6411112497
:1002C0001FBECFEFD1E2DEBFCDBF00E00CBF24E008
:1002D000ACEDB3E001C01D92AA3AB207E1F713E01A
:1002E000A0E0B2E0EEE1F5E300E00BBF02C0079052
:1002F0000D92AC3DB107D9F711E0CFE5D1E000E0B8
:1003000006C021970109802FFE010E94C517CE3536
:10031000D10780E00807A9F70E94AE110C948D1A4E
:100320000C9400008150823108F05AC0E82FF0E0B0
:100330008827E256FE4F8F4F0C94C517BE01C201AD
:10034000B001B601BA01F001C501CB01CF01D50161
:10035000D901DD01E301E701F001EB01F101F50154
:10036000809180008F778093800008958091800035
:100370008F7DF9CF80918000877FF5CF84B58F770F
:1003800084BD089584B58F7DFBCF8091B0008F77B9
:100390008093B00008958091B0008F7DF9CF809157
:1003A00090008F77809390000895809190008F7DCA
:1003B000F9CF80919000877FF5CF8091A0008F7753
:1003C0008093A00008958091A0008F7DF9CF809147
:1003D000A000877FF5CF809120018F778093200147
:1003E0000895809120018F7DF9CF80912001877F32
:1003F000F5CFCF93DF93282F30E0F901EA5BFD4F73
:100400008491F901E050FE4FD491F901E654FE4F7A
:10041000C491CC23A1F081110E949201EC2FF0E055
:10042000EE0FFF1FE056FE4FA591B491EC91ED2326
:1004300081E090E009F480E0DF91CF91089580E0C1
:1004400090E0FACF1F93CF93DF93282F30E0F9018C
:10045000EA5BFD4F8491F901E050FE4FD491F90120
:10046000E654FE4FC491CC23A9F0162F81110E94AF
:100470009201EC2FF0E0EE0FFF1FEA57FE4FA5911F
:10048000B4918FB7F894EC91111108C0D095DE2388
:10049000DC938FBFDF91CF911F910895DE2BF8CFB2
:1004A000CF93DF9390E0FC01E050FE4F24918654FF
:1004B0009E4FFC0184918823D1F090E0880F991F12
:1004C000FC01E459FE4FA591B491FC01EA57FE4F9F
:1004D000C591D491623071F49FB7F8943C91822F0A
:1004E000809583238C93E8812E2B28839FBFDF91F7
:1004F000CF9108958FB7F894EC912E2B2C938FBF4A
:10050000F6CF863308F0865320917B00982F9870A1
:10051000277F922B90937B008770806480937C0070
:1005200080917A00806480937A0080917A0086FDC1
:10053000FCCF809178009091790008953FB7F894AE
:100540008091ED039091EE03A091EF03B091F00341
:1005500026B5A89B05C02F3F19F00196A11DB11D1E
:100560003FBFBA2FA92F982F8827BC01CD01620F5A
:10057000711D811D911D42E0660F771F881F991F15
:100580004A95D1F708958F929F92AF92BF92CF92E2
:10059000DF92EF92FF924B015C010E949E026B0181
:1005A0007C010E949E026C197D098E099F09683E9C
:1005B000734081059105A8F321E0821A9108A108F2
:1005C000B10888EEC80E83E0D81EE11CF11C81142E
:1005D0009104A104B10429F7FF90EF90DF90CF9030
:1005E000BF90AF909F908F900895AF92BF92CF929F
:1005F000DF92EF92FF920F931F93CF93DF936C01E3
:100600007B018B01040F151FEB015E01AE18BF08C3
:10061000C017D10759F06991D601ED91FC91019075
:10062000F081E02DC6011995892B79F7C501DF917D
:10063000CF911F910F91FF90EF90DF90CF90BF90DF
:10064000AF900895FC01538D448D252F30E0842F09
:1006500090E0821B930B541710F0CF9608950197EA
:100660000895FC01918D828D981761F0A28DAE0FD7
:10067000BF2FB11D5D968C91928D9F5F9F73928F5E
:1006800090E008958FEF9FEF0895FC01918D828D8A
:10069000981731F0828DE80FF11D858D90E0089557
:1006A0008FEF9FEF0895FC01918D228D892F90E0AF
:1006B000805C9F4F821B91098F739927089581EF6A
:1006C00093E00E94530321E0892B09F420E0822F5C
:1006D0000895FC01A48DA80FB92FB11DA35ABF4FD7
:1006E0002C91848D90E001968F739927848FA68931
:1006F000B7892C93A089B1898C91837080648C9385
:10070000938D848D981306C00288F389E02D808133
:100710008F7D80830895EF92FF920F931F93CF9365
:10072000DF93EC0181E0888F9B8D8C8D98131AC02C
:10073000E889F989808185FF15C09FB7F894EE8913
:10074000FF896083E889F989808183708064808370
:100750009FBF81E090E0DF91CF911F910F91FF90BB
:10076000EF900895F62E0B8D10E00F5F1F4F0F7363
:100770001127E02E8C8D8E110CC00FB607FCFACF1E
:10078000E889F989808185FFF5CFCE010E94690350
:10079000F1CFEB8DEC0FFD2FF11DE35AFF4FF082EF
:1007A0009FB7F8940B8FEA89FB8980818062CFCF55
:1007B000CF93DF93EC01888D8823B9F0AA89BB8998
:1007C000E889F9898C9185FD03C0808186FD0DC083
:1007D0000FB607FCF7CF8C9185FFF2CF808185FFA4
:1007E000EDCFCE010E946903E9CFDF91CF9108954B
:1007F00081E08093E70308950E945F03882319F046
:1008000081E08093E70380E090E0892B49F080E06D
:1008100090E0892B29F00E94000081110E940000C5
:1008200080E090E0892B49F080E090E0892B29F06E
:100830000E94000081110E94000080E090E0892B5E
:1008400049F080E090E0892B29F00E94000081119E
:100850000C9400000895089590E080E00895CF93EF
:10086000DF93EC0188819981DC01ED91FC9101908D
:10087000F081E02D19952A813B81820F931F9B8384
:100880008A83DF91CF910895CF93DF93EC01888124
:100890009981DC01ED91FC910280F381E02D1995A5
:1008A0002A813B81820F931F9B838A83DF91CF91A3
:1008B00008958F929F92AF92BF92CF92DF92EF9264
:1008C000FF920F931F93CF93DF93CDB7DEB7669759
:1008D0000FB6F894DEBF0FBECDBF6C018E01095E6E
:1008E0001F4F78018AE0882E912CA12CB12CCB01CE
:1008F000BA01A50194010E94A317942F852F605D72
:10090000F80162938F01A901692F782F41155105D4
:100910006105710561F7A7014E1B5F0BBF01C601A1
:100920000E94440466960FB6F894DEBF0FBECDBF9A
:10093000DF91CF911F910F91FF90EF90DF90CF90BB
:10094000BF90AF909F908F90089580339CF08A3332
:1009500024F08F3524F08B3724F481E0089581341E
:100960004CF08B35D4F393ED980F81E09230B0F3D7
:1009700080E008958B32B9F7F0CF0F931F93CF9398
:10098000DF93EC018C85811140C009851A852FB752
:10099000F8948091E9039091EA03A091EB03B09160
:1009A000EC032FBFF80180879187A287B387D80116
:1009B000ED91FC910284F385E02DC801199597FF14
:1009C0002AC02FB7F8948091E9039091EA03A0918F
:1009D000EB03B091EC032FBFF80140855185628590
:1009E0007385841B950BA60BB70B448155816681DB
:1009F000778184179507A607B707C8F28FEF9FEF97
:100A000097FD80E08B8781E08C878B85DF91CF918C
:100A10001F910F9108959927F3CF1F93CF93DF93E1
:100A2000EC01162F0E94BD04811306C01C8681E0D4
:100A3000DF91CF911F91089580E0FACFCF93DF939C
:100A4000EC01CE010E94BD048B303CF489304CF4A3
:100A5000882349F081E0888710C08D3011F0803202
:100A6000C9F71C86EECF888581110AC081E090E02D
:100A7000C15BDF4F9983888380E0DF91CF91089538
:100A800082E090E0F5CF0895FC0124813581A90131
:100A90004F5F5F4F868197814817590748F48281DD
:100AA000938155834483FC01E20FF31F6083089513
:100AB0000190F081E02D81E0808708959F92AF92B0
:100AC000BF92CF92DF92EF92FF920F931F93CF933B
:100AD000DF9300D01F921F92CDB7DEB78C010E942A
:100AE000BD04D82ED8011C961C92F12CE12C60EF8D
:100AF000C62EC8010E94BD04F8011486D81609F458
:100B0000BDC0811119C0F801E15BFF4F82E090E0A8
:100B10009183808380E00F900F900F900F900F9043
:100B2000DF91CF911F910F91FF90EF90DF90CF90C9
:100B3000BF90AF909F9008958C3509F09DC0C8017B
:100B40000E94BD048823F9F2E0E3F2E0853709F062
:100B500087C0D8011C961C9254E0952EB12CA12C74
:100B6000C8010E94BD04882371F281344CF4805383
:100B7000803148F0F801E15BFF4F83E090E0C8CF9F
:100B80008F7D8753F5CF44E0AA0CBB1C4A95E1F753
:100B9000A82AF80114869A949110E2CFC501985DB5
:100BA0008115944020F4750123E0F222A2CFC50103
:100BB0009C5D81159440A8F4B3E0BB22B701762F69
:100BC0006627770F770F6A297B2990E080E00196EE
:100BD000603871058105910540F4C8010E94440503
:100BE00088CFB50190E080E0F3CF1982262F2F73D4
:100BF00020682A8326E096958795779567952A95AC
:100C0000D1F76032710580F4606C6B835E01E4E0C3
:100C1000AE0EB11CD5016E915D01662309F469CF5A
:100C2000C8010E944405F6CF262F2F7320682B831E
:100C300086E0769567958A95E1F76031710538F41D
:100C4000606E6C835E01F5E0AF0EB11CE3CF6068AF
:100C50006C83CD825E0126E0A20EB11CDBCF329602
:100C60009081992309F486CF8913F9CF8181882354
:100C700009F480CFF8011486682FAFCF0190F0817E
:100C8000E02D8085882331F0F801E15BFF4F84E09F
:100C900090E03ECF81E03FCFCF93DF93DC01EB01CB
:100CA000EC81FD818A819B810896E817F90740F461
:100CB00081E08887F0E0E0E0CF01DF91CF910895F7
:100CC0003897FD83EC833097B9F31296CD91DC9180
:100CD0001397209791F0CF018C1B9D0B23E09595E6
:100CE00087952A95E1F78D831396FC93EE931297DF
:100CF0001582148217821682DFCF1196FC93EE9331
:100D0000F3CFEF92FF920F931F93CF93DF937C016A
:100D1000DC0112962D913C911397ED91FC91AB0162
:100D2000420F531FEF01C60FD71FC217D307A0F4FE
:100D3000888181110BC0E901CF014C175D0751F08B
:100D40000991DC011D91CD010117B9F38191811148
:100D5000FDCFE8CF309751F4620F731FCB0101969E
:100D6000F70193838283DB011C92F901CF01DF91AC
:100D7000CF911F910F91FF90EF900895FC01258175
:100D8000222339F0F8E02F0290011124820F931FE3
:100D9000089590E080E00895FC01808191810097A2
:100DA00011F00C940A190895FB0101900020E9F755
:100DB0003197AF01461B570BDC01ED91FC9102808E
:100DC000F381E02D1994FB0101900020E9F73197A0
:100DD000AF01461B570B0C9444041F93CF93DF9332
:100DE000E0E3F2E01281112379F03296218162135F
:100DF000F9CFEC016CE50E942F04612FCE01DF9149
:100E0000CF911F910C942F046111F9CF61E472E02E
:100E1000DF91CF911F910C94E3062F923F924F9256
:100E20005F926F927F928F929F92AF92BF92CF927A
:100E3000DF92EF92FF920F931F93CF93DF93CDB783
:100E4000DEB76C970FB6F894DEBF0FBECDBF8C0136
:100E50001B01DC0114968C9114978F77863009F46E
:100E600092C268F58230A0F11296ED90FC90139733
:100E7000CC901196DC90843008F056C2A701B601E0
:100E8000C1010E944404F101828193816C960FB6E6
:100E9000F894DEBF0FBECDBFDF91CF911F910F91B0
:100EA000FF90EF90DF90CF90BF90AF909F908F908A
:100EB0007F906F905F904F903F902F9008958C306F
:100EC00069F160F4883009F459C28A3009F43FC2EC
:100ED00068E472E0C1010E94E306E5C1803209F4D2
:100EE000ECC18034A9F76BE5C1010E942F04F80121
:100EF000008111810115110509F4DAC1B101C801A0
:100F00000E940D07C8010E94BE068C01892B09F4BE
:100F1000CFC16CE2C1010E942F04ECCFF801C08068
:100F2000D180E280F380A7019601C701B6010E943B
:100F300051168111CDCF20E030E0A901C701B601E3
:100F40000E945116882379F0A7019601C701B601C6
:100F50000E94CE179B01AC01C701B6010E94511639
:100F6000882309F4B5CF20E030E0A901C701B6011C
:100F70000E94511687FF08C06DE2C1010E942F0434
:100F8000F7FAF094F7F8F09420E836E948E15BE4EA
:100F9000C701B6010E94691887FD81C074E1A72EC0
:100FA000B12C00E210E0188E1F8AF501E457FD4FC6
:100FB0002591359145915491C701B6010E94691858
:100FC00087FD13C0F501EC55FD4F259135914591F5
:100FD0005491C701B6010E94B7166B017C012F899D
:100FE000388D200F311F388F2F8B1595079534E0E2
:100FF000A31AB1088CEFA8168FEFB806B1F65524E6
:101000005A9420E030E0A901C701B6010E94691896
:1010100018160CF04BC02CEA35EC47E257E3C70139
:10102000B6010E94511618160CF440C0A52DB4E06C
:10103000AB02C0011124B12CA12CFC01EC5AFE4FD3
:101040003F019C0124573D4F49013FEF531671F179
:10105000F301EA0DFB1D2591359145915491C7018E
:10106000B6010E94511687FF13C0F401EA0DFB1D63
:101070002591359145915491C701B6010E94B7164B
:101080006B017C018F89988D801B910B988F8F8BC2
:10109000159507955A9494E0A91AB108D6CF00E2A5
:1010A00010E055E0552E188E1F8AABCFC701B60150
:1010B0000E943A184B015C012B013C0106E080E4E0
:1010C00092E4AFE0B0E0898F9A8FAB8FBC8F102F86
:1010D00001509AE04916510461047104C8F0698D09
:1010E0007A8D8B8D9C8D2AE030E040E050E00E94AC
:1010F000A317298F3A8F4B8F5C8FC301B2012AE06F
:1011000030E040E050E00E94A31729013A01DFCF10
:10111000C501B4010E9456169B01AC01C701B6017E
:101120000E94CD176B017C01698D7A8D8B8D9C8D12
:101130000E9456169B01AC01C701B6010E94B7166A
:101140002B013C010E943A186B017C010E9456164B
:101150009B01AC01C301B2010E94CD179B01AC0100
:101160000E94CE170E943A18C60ED71EE81EF91E1E
:10117000898D9A8DAB8DBC8DC816D906EA06FB0603
:10118000D8F09FEF891A990AA90AB90AAF89B88DD0
:10119000AB2B39F1BAE08B169104A104B10408F12C
:1011A000EF89F88D3196F88FEF8BC12CD12C760119
:1011B000812C912C540183942AE0422E512C612CD5
:1011C000712CC701B601A30192010E94A317672BDE
:1011D000682B692B51F4111644F469017A011150FE
:1011E000F0CFC12CD12C7601E7CFB501A401C1010C
:1011F0000E945904112371F14E01F1E18F0E911CEF
:10120000012F54019AE0492E512C612C712C015070
:1012100068F0C701B601A30192010E94A317605DA7
:10122000D4016E934D0169017A01F1CF812F90E0D5
:10123000BC0160957095F501E81BF90B31978EE2C2
:10124000808344275527461B570B6A0D7B1DC10120
:101250000E944404EF89F88DEF2B29F165E6C10166
:101260000E942F040F89188D17FF07C06DE2C1017E
:101270000E942F04119501951109FE0177969F0197
:101280008AE0E82EF12CC801B7010E948F17805D1B
:1012900082938B01672BB9F7A9014E1B5F0BBF012E
:1012A000C1010E944404D10112968D919C91EECD12
:1012B0006DE5C1010E942F04F6CF6BE7C1010E94CA
:1012C0002F04F801008111810115110559F1D80190
:1012D0001696CC9016971796DC9062E2C1010E9498
:1012E0002F047601F70161917F01662321F0C1018E
:1012F0000E94ED06F7CF62E2C1010E942F046AE36B
:10130000C1010E942F04B101C8010E940D07C8014C
:101310000E94BE068C01892B29F06CE2C1010E945B
:101320002F04D2CF6DE7C5CF62E2C1010E942F0426
:101330008601E00EF11EE016F10639F0F801619128
:101340008F01C1010E94ED06F6CF62E2B2CFCD90CF
:10135000DD90ED90FC90B701A601F7FE0BC06DE2A9
:10136000C1010E942F0444275527BA014C195D0979
:101370006E097F09C1010E94590485CD4D915D918F
:101380006D917C91F7CF8C916DE472E0811102C078
:1013900062E572E0C1010E94E30675CDEF92FF9213
:1013A0000F931F93CF93DF93EC017B011982188277
:1013B0001B821A821D821C82FB0101900020E9F72A
:1013C00031978F01061B170BB8016F5F7F4F90E0BD
:1013D00080E00E9493190097B9F0998388831B835A
:1013E0000A832C813D81232B11F4FC0110821D8383
:1013F0000C83B70188819981DF91CF911F910F9163
:10140000FF90EF900C94861A88819981009711F0D3
:101410000E940A19198218821D821C821B821A825C
:10142000DF91CF911F910F91FF90EF900895CF938F
:10143000DF93EC0160E08E810E94220261E08E81E8
:101440000E94220260E08E810E9422028BE891E0DD
:101450000197F1F7DF91CF910895CF92DF92EF924C
:10146000FF920F931F93CF93DF936C017C0187E072
:10147000E80EF11CD0E0C0E0062F10E0B8010C2E01
:1014800002C0759567950A94E2F76170F701819142
:101490007F010E9422022196C430D10579F7C6014E
:1014A000DF91CF911F910F91FF90EF90DF90CF9040
:1014B0000C94170ACF92DF92EF92FF920F931F9333
:1014C000CF93DF93EC01F62E642F8C810E942202D1
:1014D0008D818F3F19F060E00E9422020F2D10E0F5
:1014E0008F8584FF25C06E0187E0C80ED11CF12CCA
:1014F000E12CB8010E2C02C0759567950A94E2F7AD
:101500006170F60181916F010E942202FFEFEF1AD4
:10151000FF0A88E0E816F10461F7CE01DF91CF9170
:101520001F910F91FF90EF90DF90CF900C94170ACE
:10153000B80184E0759567958A95E1F7CE010E9420
:101540002D0A6F2DCE01DF91CF911F910F91FF904A
:10155000EF90DF90CF900C942D0A40E0682F8EE83A
:1015600094E00C945A0A81E00E94AD0A8BE39FE15B
:101570000197F1F70895CF93DF93823029F490918A
:101580009D04986090939D048093A1041092A204FE
:1015900080E48093A30480E18093A40480E5809399
:1015A000A50461E0809192040E945002809193040E
:1015B0008F3F19F061E00E94500261E08091940435
:1015C0000E945002CEE8D4E09E012E583440809113
:1015D0009D0484FD0BC084E090E021962817390714
:1015E00044F461E08E810E945002EECF88E090E0EA
:1015F000F4CF8BE39DE00197F1F760E080919204D6
:101600000E94220260E0809194040E942202809154
:1016100093048F3F19F060E00E94220280919D04A4
:1016200084FD34C063E08EE894E00E942D0ACBE490
:10163000D6E4CE010197F1F763E08EE894E00E94D2
:101640002D0A2197F1F763E08EE894E00E942D0ABD
:1016500083E592E00197F1F762E08EE894E00E9462
:101660002D0A80919D0480620E94AD0A84E08093DF
:101670009E048CE00E94AD0A0E94B30A82E080932F
:101680009F0486E0DF91CF910C94AD0A80620E94A6
:10169000AD0A8BE496E40197F1F780919D04806296
:1016A0000E94AD0A83E592E00197F1F780919D04D5
:1016B00080620E94AD0AD5CFCF93DF93EC01809179
:1016C000A104481710F04FEF480FE42FF0E0E25765
:1016D000FB4F8489860F80680E94AD0A4C815D8132
:1016E000688179818EE894E0DF91CF910C94F502C6
:1016F00041E00E945A0A81E090E008958F929F9203
:10170000AF92BF92CF92DF92EF92FF92CF93DF938F
:10171000CDB7DEB7A1970FB6F894DEBF0FBECDBF31
:101720006C018091A104481710F04FEF480FE42F8F
:10173000F0E0E257FB4F8489860F80680E94AD0A73
:101740000D2C000CEE08FF08F7FE3EC041E06DE2F4
:101750008EE894E00E945A0A22273327A9012C1907
:101760003D094E095F0919A2CE0181967C019AE0DC
:10177000892E912CA12CB12CCA01B901A50194018B
:101780000E94A317605DF70162937F012115310567
:101790004105510589F7E114F10429F0B7018EE8FC
:1017A00094E00E94D406A1960FB6F894DEBF0FBE57
:1017B000CDBFDF91CF91FF90EF90DF90CF90BF90A2
:1017C000AF909F908F900895A701960119A2CE0126
:1017D00081967C018AE0882E912CA12CB12CCA0123
:1017E000B901A50194010E94A317605DF7016293FE
:1017F0007F01211531054105510589F7CCCF0F93A4
:101800001F93CF93DF93D0E0C0E06115710591F095
:101810008B01FC01C081D181209761F06E817F81B5
:10182000C8010E947D1A892B29F0CE010E94BE06B4
:10183000EC01F2CFCE01DF91CF911F910F9108956E
:101840004F925F926F927F92BF92CF92DF92EF9210
:10185000FF920F931F93CF93DF93EC018B01E42E44
:101860000E941E05F82E811110C0F12C8F2DDF91E2
:10187000CF911F910F91FF90EF90DF90CF90BF908D
:101880007F906F905F904F900895CE010E94BD04AD
:10189000873209F42BC10CF5823209F427C1CE013D
:1018A0000E94BD04B82E6E01FFE0CF0ED11CE12CCA
:1018B00036018B2D0E94A504882309F443C12FE330
:1018C000E21609F43FC11C86E394F601B1926F0160
:1018D000CE010E94BD04B82EECCF8B3509F44AC06E
:1018E0008B37E9F6F80184818078806284831182E5
:1018F000108213821282EE2009F447C01C86CE01AA
:101900000E941E05882309F4B0CF6DE7CE010E9426
:101910000D05D82E8111AACFCC24C394EA94E88176
:10192000F981828193819B838A838481958122813D
:101930003381821B930B9F838E831D821C82892B94
:1019400009F4C086CE010E94BD04873209F45DC04F
:10195000823209F45AC0CE010E94BD04F82E0E94C2
:10196000A504811159C0C15BDF4F83E090E09983EA
:10197000888350C0F80184818078806484831182D8
:10198000108213821282E11007C0C15BDF4F85E035
:1019900090E09983888369CF1C86CE010E941E0542
:1019A000882309F462CF6DE5CE010E940D058111F7
:1019B0005DCFEA946D857E85C8010E944C06009734
:1019C00029F4C15BDF4F84E090E0E3CF4E2DBC01F2
:1019D000CE010E94200C882309F447CFCE010E943B
:1019E0001E05882309F441CF6DE5CE010E940D0547
:1019F00081113CCF6CE2CE010E940D058111DACF3E
:101A0000C15BDF4F83E090E0C4CFCE010E945E0552
:101A1000811119C0FD2C2ACF1C866F2DCE010E948A
:101A20004405CE010E94BD04F82E0E94A504811138
:101A3000F3CFE881F9818085882329F0C15BDF4FEE
:101A400084E090E094CFCE010E941E05882311F31C
:101A50006AE3CE010E940D05882309F484CFEA8150
:101A6000FB818C819D81E80FF91F10826C807D8045
:101A70006A817B81C8010E94FF0BBC01892BA1F404
:101A8000B301888199810E9481063C016D857E8524
:101A9000C8010E944C06FC01892B81F28481806878
:101AA000848377826682BF014E2DCE010E94200C76
:101AB000882309F4AFCFCE010E941E05882309F4C4
:101AC000A9CF6DE7CE010E940D0581110DC06CE21A
:101AD000CE010E940D05882309F445CFCE010E9456
:101AE0001E0581111CCF96CFD82E94CFE881F981A5
:101AF000828193819B838A83848195812281338132
:101B0000821B930B9F838E831D821C82892B11F471
:101B100081E08087CE010E945E05F82E882309F4BB
:101B2000A4CECC80DD80B601888199810E94810697
:101B3000F801248120782560248391838083D382D7
:101B4000C28294CEFE01EE0DF11D17868F8584377B
:101B500081F4F801848180788660848381E08083C9
:101B6000F4E0EF1609F482CEC15BDF4F82E090E033
:101B700010CF863641F4F8018481807886608483B2
:101B80001082F5E0EECF8E3621F424E0E212ECCFA5
:101B90006DCE8B32D9F1F3018D32D1F5FE01709605
:101BA000BF2C808190ED980F9A3018F08E3209F09A
:101BB00027CF6F0160E070E0CB01F6012191A0ED2D
:101BC0004A2E420E39E0341528F16A3949E9740782
:101BD000840749E1940740F5AAE0B0E09B01AC011D
:101BE0000E947517512C712C612CA3019201209534
:101BF0003095409550952617370748075907A0F0AC
:101C0000640D751D861D971D6F01D7CFFE0170965F
:101C1000B12CC7CF211108C0BB2071F16130710513
:101C2000810550E89507A0F0E12CEAE04E2E512CFA
:101C3000612C712C61157105F0E88F07910530F169
:101C4000A30192010E94A317CA01B901E394F2CF44
:101C5000F801248120782A6024839B01AC01882725
:101C60009927DC01821B930BA40BB50B8083918316
:101C7000A283B383FB2CFACDF8012481207828605D
:101C800024836083718382839383F0CDD601F60130
:101C900021916F0130ED320F3A3010F4E394F6CF1A
:101CA0002E32F1F4FD013196DF0131962C9150ED89
:101CB000D52ED20E29E02D1598F06C3C3CEC730724
:101CC0003CE08307910580F7AAE0B0E09B01AC01FE
:101CD0000E9475176D0D711D811D911DEA94E4CF51
:101CE0002C912F7D253409F08CC011962C911197E1
:101CF0002D32D9F512967F2CFD0130E020E0CE2C5C
:101D00000E2C000CDD084AE0542EDF01619040EDFE
:101D1000460D4A3008F043C0529EA001539E500D1C
:101D20001124262D660C330B20533109240F351F47
:101D3000A601420F531F473251053CF3F80184813D
:101D40007720D1F040E050E060E070E8B11003C0CF
:101D500040E050E0BA0180788C60F80184834083D1
:101D6000518362837383F72C81CD2B3219F0119646
:101D7000712CC2CF1296FCCF40E050E060E87FEFBC
:101D8000B11004C040E050E060E87FE780788C60EC
:101D9000F8018483408351836283738367CD772006
:101DA00019F03195219531094C91411129CEE90164
:101DB000CE0DD11DE7FCDA950E9456161C161D06A5
:101DC0001CF5E12CC0FF0CC024E0E29EF0011124C0
:101DD000E457FD4F25913591459154910E94B716D6
:101DE000D595C795E394209769F7B1109058F801FD
:101DF000248120782C602483608371838283938381
:101E000035CD30E020E0D0CFD195C195D109E12C7E
:101E1000209759F3C0FF0CC044E0E49EF001112468
:101E2000EC55FD4F25913591459154910E94B7167F
:101E3000D595C795E394ECCFEF92FF920F931F9344
:101E4000CF93DF93EC018C81982F9F7739F48078C2
:101E500080628C83198218821B821A828C8185FF92
:101E60001DC061157105D1F07A018B01CE010E9470
:101E7000FF0B009761F4B701CE010E944C0600975A
:101E800031F0FC0124812F77248317830683DF91AF
:101E9000CF911F910F91FF90EF90089590E080E017
:101EA000F6CFCF92DF92EF92FF920F931F93CF93D3
:101EB000DF93CDB7DEB7C650D2400FB6F894DEBF81
:101EC0000FBECDBFCE010F969A8389839C838B83EF
:101ED0008E010D5F1D4F1E830D8318870F8319869A
:101EE0001E868FB7F894C090E903D090EA03E09083
:101EF000EB03F090EC038FBFAE014F5F5F4F68E5DF
:101F000072E0CE010A960E941C0FFC01892B41F061
:101F10009481907898609483C082D182E282F38227
:101F2000AE014F5F5F4F6DE572E0CE010A960E94F1
:101F30001C0FFC01892B81F02091DD033091DE0321
:101F4000948190789A609483C901330FAA0BBB0BDC
:101F500080839183A283B38381EF93E0F80191831F
:101F6000808313821282B801CE010A960E940D0767
:101F700064E672E081EF93E00E94D4061092DC03E5
:101F8000CA5FDD4F0FB6F894DEBF0FBECDBFDF9145
:101F9000CF911F910F91FF90EF90DF90CF90089518
:101FA0000F931F93CF93DF93CDB7DEB7C356D240C5
:101FB0000FB6F894DEBF0FBECDBFCE010F969A8349
:101FC00089839C838B8383E092E08C0F9D1F9E838B
:101FD0008D8398878F8319861E8682509240C45ABB
:101FE000DD4F99838883CC55D24028E0FE01E45A26
:101FF000FD4FDE01AC5ABD4F01900D922A95E1F7DD
:1020000028E0FE01EC5AFD4FDE01AD5FBD4F0190AF
:102010000D922A95E1F7C55FDD4F1882CB50D24073
:1020200021EF33E0C45FDD4F39832883CC50D240A9
:10203000C15FDD4F1882CF50D240C05FDD4F998322
:102040008883C051D240CE5ADD4F19821882C255C2
:10205000D2404AE0BE01665F7F4F8E5F9D4F0E9477
:10206000200CCE5ADD4F08811981C255D24001158E
:10207000110529F5C25FDD4F8881CE50D2408823FB
:10208000F1F08E8583FF1BC01092E70303E010E0A0
:1020900067E672E081EF93E00E94D406000F111F03
:1020A000F801EA5FFD4F6081718161157105D9F515
:1020B00064E672E081EF93E00E94D40608C01092BB
:1020C000E7030115110521F78E8585FD0CC0CD595B
:1020D000DD4F0FB6F894DEBF0FBECDBFDF91CF91BD
:1020E0001F910F9108956EE772E0CE010A960E944B
:1020F000FF0B009761F3FC0184818F7741F36EE75A
:1021000072E0CE010A960E94FF0BFC01892B81F13F
:1021100094819F77983019F158F4992349F19630BA
:10212000C1F011E017C081EF93E00E94D406C0CF48
:102130009A30A9F09C30A9F711E020E030E0A90125
:1021400060817181828193810E945116811102C048
:102150000FC01081612F87E00E942202B8CF11E0EA
:1021600080819181A281B381892B8A2B8B2B91F75E
:1021700010E0F0CF1F920F920FB60F9211242F9301
:102180003F938F939F93AF93BF938091E903909177
:10219000EA03A091EB03B091EC033091E80323E054
:1021A000230F2D3758F50196A11DB11D2093E8038B
:1021B0008093E9039093EA03A093EB03B093EC03BD
:1021C0008091ED039091EE03A091EF03B091F003A5
:1021D0000196A11DB11D8093ED039093EE03A09392
:1021E000EF03B093F003BF91AF919F918F913F9117
:1021F0002F910F900FBE0F901F90189526E8230F78
:102200000296A11DB11DD2CF1F920F920FB60F9251
:1022100011240BB60F922F933F934F935F936F93BD
:102220007F938F939F93AF93BF93EF93FF9381EF30
:1022300093E00E946903FF91EF91BF91AF919F914D
:102240008F917F916F915F914F913F912F910F905F
:102250000BBE0F900FBE0F901F9018951F920F92FC
:102260000FB60F9211240BB60F922F938F939F935B
:10227000EF93FF93E0910104F09102048081E091DB
:102280000704F091080482FD1DC0908180910A042A
:102290008F5F8F7320910B04821741F0E0910A0445
:1022A000F0E0EF50FC4F958F80930A04FF91EF917F
:1022B0009F918F912F910F900BBE0F900FBE0F909B
:1022C0001F9018958081F2CFE1EFF3E01382128224
:1022D00088EE93E0A0E0B0E084839583A683B78383
:1022E00086E192E09183808385EC90E095878487F6
:1022F00084EC90E09787868780EC90E0918B808BD0
:1023000081EC90E0938B828B82EC90E0958B848BB8
:1023100086EC90E0978B868B118E128E138E148E26
:10232000EEE8F4E01382128288E292E091838083E7
:102330008CE084838FEF85838BE0868385E08783C1
:1023400084E0808783E0818782E082871386148619
:1023500015861686178681E00C94BB0ACF93DF930F
:1023600000D000D0CDB7DEB7789484B5826084BD4C
:1023700084B5816084BD85B5826085BD85B5816089
:1023800085BD80916E00816080936E001092810007
:1023900080918100826080938100809181008160C2
:1023A0008093810080918000816080938000809183
:1023B000B10084608093B1008091B000816080930F
:1023C000B000809191008260809391008091910093
:1023D0008160809391008091900081608093900053
:1023E0008091A10082608093A1008091A100816012
:1023F0008093A1008091A00081608093A0008091D3
:10240000210182608093210180912101816080936C
:1024100021018091200181608093200180917A00C8
:10242000846080937A0080917A00826080937A0041
:1024300080917A00816080937A0080917A00806830
:1024400080937A001092C100E0910104F09102049F
:1024500082E08083E091FD03F091FE031082E09121
:10246000FF03F091000480E1808310920904E09161
:102470000504F091060486E08083E0910304F09166
:102480000404808180618083E0910304F09104045E
:10249000808188608083E0910304F091040480814E
:1024A00080688083E0910304F091040480818F7D33
:1024B000808361E087E00E94500260E087E00E9434
:1024C000220261E086E10E94500261E088E10E9400
:1024D000500261E08AE10E94500261E08CE10E94BA
:1024E000500261E08EE10E94500261E080E20E94B1
:1024F000500261E082E20E94500261E084E20E94A8
:10250000500261E086E20E94500261E088E20E948F
:10251000500262E082E30E94500262E083E30E9484
:10252000500262E084E30E94500262E085E30E9470
:10253000500261E08AE20E94500282E00E94BB0ADF
:1025400061E081E20E94500211E08091E70388235C
:1025500021F00E94D00F0E94510F62E872E0CE017C
:1025600001960E94CE0950E040E070E060E0CE01AC
:1025700001960E945C0BCE0101960E94CC0674E687
:10258000E72EF12C60E972E0CE0101960E94CE099F
:1025900041E050E070E060E0CE0101960E945C0BEB
:1025A000CE0101960E94CC068BE30E94810241E09D
:1025B00050E062E070E00E947E0B63E972E0CE01C1
:1025C00001960E94CE0941E050E065E070E0CE0146
:1025D00001960E945C0BCE0101960E94CC0689E315
:1025E0000E94810241E050E067E070E00E947E0BB3
:1025F00066E972E0CE0101960E94CE0941E050E00A
:102600006AE070E0CE0101960E945C0BCE0101965B
:102610000E94CC068AE30E94810241E050E06CE017
:1026200070E00E947E0B64E670E080E090E00E9423
:10263000C30281E0E81AF10809F0A4CF68EE73E064
:1026400080E090E00E94C3020E94B30A69E972E050
:10265000CE0101960E94CE0950E040E070E060E0BB
:10266000CE0101960E945C0BCE0101960E94CC0621
:1026700064E0E62EF12C61E086E10E94220264E62D
:1026800070E080E090E00E94C30261E088E10E9477
:10269000220264E670E080E090E00E94C30261E004
:1026A0008AE10E94220264E670E080E090E00E94ED
:1026B000C30261E08CE10E94220264E670E080E0E7
:1026C00090E00E94C30261E08EE10E94220264E673
:1026D00070E080E090E00E94C30261E080E20E942E
:1026E000220264E670E080E090E00E94C30261E0B4
:1026F00082E20E94220264E670E080E090E00E94A4
:10270000C30261E084E20E94220264E670E080E09D
:1027100090E00E94C30261E086E20E94220264E629
:1027200070E080E090E00E94C30261E088E20E94D5
:10273000220264E670E080E090E00E94C30260E064
:1027400086E10E94220264E670E080E090E00E9450
:10275000C30260E088E10E94220264E670E080E04B
:1027600090E00E94C30260E08AE10E94220264E6D7
:1027700070E080E090E00E94C30260E08CE10E9483
:10278000220264E670E080E090E00E94C30260E014
:102790008EE10E94220264E670E080E090E00E94F8
:1027A000C30260E080E20E94220264E670E080E002
:1027B00090E00E94C30260E082E20E94220264E68E
:1027C00070E080E090E00E94C30260E084E20E943A
:1027D000220264E670E080E090E00E94C30260E0C4
:1027E00086E20E94220264E670E080E090E00E94AF
:1027F000C30260E088E20E94220264E670E080E0AA
:1028000090E00E94C30268EE73E080E090E00E94D6
:10281000C30281E0E81AF10809F02DCF68EE73E0F9
:1028200080E090E00E94C3020E94B30A6AEA72E06C
:10283000CE0101960E94CE0950E040E070E060E0D9
:10284000CE0101960E945C0BCE0101960E94CC063F
:102850008091E603882361F08091E503882341F0AD
:102860008091E403882321F08091E303811169C002
:1028700082E30E94F901892BA9F46BEB72E0CE018F
:1028800001960E94CE0941E050E061E070E0CE0187
:1028900001960E945C0BCE0101960E94CC0610931B
:1028A000E303D6CF83E30E94F901892BA9F46CECF2
:1028B00072E0CE0101960E94CE0941E050E061E055
:1028C00070E0CE0101960E945C0BCE0101960E9441
:1028D000CC061093E403BCCF84E30E94F901892B5A
:1028E000A9F46DED72E0CE0101960E94CE0941E09F
:1028F00050E061E070E0CE0101960E945C0BCE01D9
:1029000001960E94CC061093E503A2CF85E30E94B6
:10291000F901892B09F09CCF6EEE72E0CE01019691
:102920000E94CE0941E050E061E070E0CE010196E6
:102930000E945C0BCE0101960E94CC061093E60328
:1029400087CF68EE73E080E090E00E94C3020E94AF
:10295000B30A6FEF72E0CE0101960E94CE0950E0FB
:1029600040E070E060E0CE0101960E945C0BCE0179
:1029700001960E94CC0654E6E52EF12C86E30E94D7
:1029800081029093DE038093DD036BE073E0CE0160
:1029900001960E94CE0950E040E070E060E0CE0178
:1029A00001960E945C0BCE0101960E94CC0641E08C
:1029B00050E065E070E08091DD039091DE030E94BD
:1029C0007E0B64E670E080E090E00E94C30281E04C
:1029D000E81AF10899F668EE73E080E090E00E9452
:1029E000C3020E94B30A61E273E0CE0101960E9425
:1029F000CE0950E040E070E060E0CE0101960E9418
:102A00005C0BCE0101960E94CC0668EE73E080E07C
:102A100090E00E94C30244E6E42EF12C87E30E947A
:102A200081029093E2038093E10362E373E0CE01BD
:102A300001960E94CE0941E050E070E060E0CE01D6
:102A400001960E945C0BCE0101960E94CC0641E0EB
:102A500050E06DE070E08091E1039091E2030E940C
:102A60007E0B88E30E9481029093E0038093DF0352
:102A700060E473E0CE0101960E94CE0950E040E090
:102A800070E060E0CE0101960E945C0BCE010196E1
:102A90000E94CC0650E040E06DE070E08091DF03E2
:102AA0009091E0030E947E0B64E670E080E090E08D
:102AB0000E94C30281E0E81AF10809F0AFCF68EE86
:102AC00073E080E090E00E94C3020E94B30A6EE4CB
:102AD00073E0CE0101960E94CE0950E040E070E024
:102AE00060E0CE0101960E945C0BCE0101960E942F
:102AF000CC0632E0E32EF12C61E08AE20E94220251
:102B00006DE573E0CE0101960E94CE0941E050E0F0
:102B100061E070E0CE0101960E945C0BCE0101964F
:102B20000E94CC0668EE73E080E090E00E94C30251
:102B30000E94B30A60E08AE20E9422026EE673E01D
:102B4000CE0101960E94CE0941E050E061E070E0C4
:102B5000CE0101960E945C0BCE0101960E94CC062C
:102B600068EE73E080E090E00E94C30264E670E0EB
:102B700080E090E00E94C302EA94EF2809F089C047
:102B800068EE73E080E090E00E94C3020E94B30A06
:102B90006FE773E0CE0101960E94CE0950E040E05D
:102BA00070E060E0CE0101960E945C0BCE010196C0
:102BB0000E94CC0692E0E92EF12C61E081E20E94B5
:102BC00022026DE573E0CE0101960E94CE0941E03C
:102BD00050E061E070E0CE0101960E945C0BCE01F6
:102BE00001960E94CC0668EE73E080E090E00E94BF
:102BF000C30260E081E20E9422026EE673E0CE0131
:102C000001960E94CE0941E050E061E070E0CE0103
:102C100001960E945C0BCE0101960E94CC0668EEE4
:102C200073E080E090E00E94C30264E670E080E020
:102C300090E00E94C302EA94EF2879F568EE73E011
:102C400080E090E00E94C3020E94B30A6EE873E045
:102C5000CE0101960E94CE0950E040E070E060E0B5
:102C6000CE0101960E945C0BCE0101960E94CC061B
:102C700068EE73E080E090E00E94C3020E94B30A15
:102C800060E573EC80E090E00E94C3020E94FC03C8
:102C90005CCCEE24E394F12C2FCFEE24E394F12CC2
:102CA0008CCF0E94931608F481E00895E89409C03F
:102CB00097FB3EF490958095709561957F4F8F4F6F
:102CC0009F4F9923A9F0F92F96E9BB279395F69585
:102CD000879577956795B795F111F8CFFAF4BB0F03
:102CE00011F460FF1BC06F5F7F4F8F4F9F4F16C067
:102CF000882311F096E911C0772321F09EE8872FF1
:102D0000762F05C0662371F096E8862F70E060E0AC
:102D10002AF09A95660F771F881FDAF7880F969525
:102D2000879597F90895990F0008550FAA0BE0E8C9
:102D3000FEEF16161706E807F907C0F0121613067D
:102D4000E407F50798F0621B730B840B950B39F4BD
:102D50000A2661F0232B242B252B21F408950A2623
:102D600009F4A140A6958FEF811D811D08950E9451
:102D7000CA160C943B170E942D1738F00E94341786
:102D800020F0952311F00C9424170C942A17112489
:102D90000C946F170E944C1770F3959FC1F3950F19
:102DA00050E0551F629FF001729FBB27F00DB11DCF
:102DB000639FAA27F00DB11DAA1F649F6627B00D5F
:102DC000A11D661F829F2227B00DA11D621F739F48
:102DD000B00DA11D621F839FA00D611D221F749F56
:102DE0003327A00D611D231F849F600D211D822F9D
:102DF000762F6A2F11249F5750409AF0F1F08823C4
:102E00004AF0EE0FFF1FBB1F661F771F881F9150F0
:102E10005040A9F79E3F510580F00C9424170C9464
:102E20006F175F3FE4F3983ED4F3869577956795E7
:102E3000B795F795E7959F5FC1F7FE2B880F911D1A
:102E40009695879597F9089597F99F6780E870E0C0
:102E500060E008959FEF80EC089500240A94161610
:102E6000170618060906089500240A941216130678
:102E7000140605060895092E0394000C11F4882306
:102E800052F0BB0F40F4BF2B11F460FF04C06F5F22
:102E90007F4F8F4F9F4F089557FD9058440F551FF8
:102EA00059F05F3F71F04795880F97FB991F61F0CC
:102EB0009F3F79F087950895121613061406551F43
:102EC000F2CF4695F1DF08C0161617061806991FAF
:102ED000F1CF86957105610508940895E894BB27A4
:102EE00066277727CB0197F908950E948017A59F41
:102EF000900DB49F900DA49F800D911D11240895F5
:102F0000A29FB001B39FC001A39F700D811D11242A
:102F1000911DB29F700D811D1124911D0895AA1B52
:102F2000BB1B51E107C0AA1FBB1FA617B70710F0B4
:102F3000A61BB70B881F991F5A95A9F780959095E6
:102F4000BC01CD010895A1E21A2EAA1BBB1BFD01F5
:102F50000DC0AA1FBB1FEE1FFF1FA217B307E40778
:102F6000F50720F0A21BB30BE40BF50B661F771FD0
:102F7000881F991F1A9469F76095709580959095B0
:102F80009B01AC01BD01CF010895EE0FFF1F881F0B
:102F90008BBF0790F691E02D19945058BB27AA27B4
:102FA0000E94E5170C943B170E942D1738F00E94E1
:102FB000341720F039F49F3F19F426F40C942A17A3
:102FC0000EF4E095E7FB0C942417E92F0E944C17B0
:102FD00058F3BA17620773078407950720F079F44E
:102FE000A6F50C946E170EF4E0950B2EBA2FA02DBB
:102FF0000B01B90190010C01CA01A0011124FF27A6
:10300000591B99F0593F50F4503E68F11A16F040A0
:10301000A22F232F342F4427585FF3CF469537959F
:103020002795A795F0405395C9F77EF41F16BA0B64
:10303000620B730B840BBAF09150A1F0FF0FBB1F12
:10304000661F771F881FC2F70EC0BA0F621F731F5B
:10305000841F48F4879577956795B795F7959E3FB8
:1030600008F0B0CF9395880F08F09927EE0F979549
:10307000879508950E94541788F09F5798F0B92FAC
:103080009927B751B0F0E1F0660F771F881F991F9D
:103090001AF0BA95C9F714C0B13091F00E946E17BA
:1030A000B1E008950C946E17672F782F8827B85FCA
:1030B00039F0B93FCCF3869577956795B395D9F7F5
:1030C0003EF490958095709561957F4F8F4F9F4FFF
:1030D00008950E94931608F48FEF08950F931F939D
:1030E000CF93DF938230910510F482E090E0E0917D
:1030F000A804F091A90430E020E0B0E0A0E030970F
:1031000099F42115310509F44AC0281B390B2430E4
:103110003105D8F58A819B816115710589F1FB0123
:1031200093838283FE0111C040815181028113810A
:1031300048175907E0F04817590799F4109761F0BC
:1031400012960C93129713961C933296CF01DF912F
:10315000CF911F910F9108950093A8041093A90493
:10316000F4CF2115310551F04217530738F0A9016A
:10317000DB019A01BD01DF01F801C1CFEF01F9CFF9
:103180009093A9048093A804CDCFFE01E20FF31F12
:10319000819391932250310939832883D7CF20918D
:1031A000A6043091A704232B41F420910202309110
:1031B00003023093A7042093A604209100023091CB
:1031C00001022115310541F42DB73EB740910402AB
:1031D00050910502241B350BE091A604F091A70441
:1031E000E217F307A0F42E1B3F0B2817390778F0DE
:1031F000AC014E5F5F4F2417350748F04E0F5F1F3D
:103200005093A7044093A604819391939FCFF0E03D
:10321000E0E09CCFCF93DF930097E9F0FC01329779
:1032200013821282A091A804B091A904ED0130E0AC
:1032300020E01097A1F420813181820F931F20910B
:10324000A6043091A7042817390709F061C0F0934C
:10325000A704E093A604DF91CF910895EA01CE1769
:10326000DF07E8F54A815B819E0141155105B1F701
:10327000E901FB83EA8349915991C40FD51FEC17EB
:10328000FD0761F4808191810296840F951FE90109
:1032900099838883828193819B838A83F0E0E0E035
:1032A00012968D919C9113970097B9F52D913C91B1
:1032B0001197CD010296820F931F2091A6043091A1
:1032C000A7042817390739F6309751F51092A90449
:1032D0001092A804B093A704A093A604BCCFD383F4
:1032E000C28340815181840F951FC817D90761F4AB
:1032F0004E5F5F4F88819981480F591F51834083EA
:103300008A819B81938382832115310509F0B0CF97
:10331000F093A904E093A8049ECFFD01DC01C0CF87
:1033200013821282D7CF4F925F926F927F928F92C9
:103330009F92AF92BF92CF92DF92EF92FF920F9344
:103340001F93CF93DF938C01009799F4CB01DF910A
:10335000CF911F910F91FF90EF90DF90CF90BF9092
:10336000AF909F908F907F906F905F904F900C9454
:103370006E18FC01E60FF71F9C0122503109E2177D
:10338000F30708F4AEC0D901CD91DC911197C617AF
:10339000D70720F1C530D10578F0CE010497861704
:1033A000970750F0C61BD70B2297C193D1936D930B
:1033B0007C93CF010E940A19C801DF91CF911F9120
:1033C0000F91FF90EF90DF90CF90BF90AF909F90C4
:1033D0008F907F906F905F904F9008955B01AC1A33
:1033E000BD0A4C018C0E9D1EA091A804B091A904A9
:1033F000512C412CF12CE12C109731F58091A60431
:103400009091A7048815990509F05CC046165706E7
:1034100008F058C08091000290910102009741F499
:103420008DB79EB74091040250910502841B950B05
:10343000E817F90708F055C0F093A704E093A60435
:10344000F90171836083B8CF8D919C911197129689
:103450006C90129713967C901397A815B90559F59F
:103460006C0142E0C40ED11CCA14DB0420F1AC0193
:103470004A195B09DA011296159780F0628273820D
:1034800051834083D9016D937C93E114F10471F071
:10349000D7011396FC93EE9312978ECF22968C0F42
:1034A0009D1FF90191838083F301EFCFF093A9046D
:1034B000E093A80481CF4816590608F42C017D0139
:1034C000D3019ACFCB010E946E187C01009749F07E
:1034D000AE01B8010E94741AC8010E940A1987013E
:1034E0006BCF10E000E068CFFB01DC0102C001906F
:1034F0000D9241505040D8F70895FB01DC018D91A9
:10350000019080190110D9F3990B0895FB01DC019A
:0E35100001900D920020E1F70895F894FFCF8E
:10351E000000AA0480009F03A203AD03BD03CA03EB
:10352E00D303000000008B03F5022203D8035303DC
:10353E003103450300000000780BF5022C042B0428
:10354E002F2F22225C5C6208660C6E0A720D7409C3
:10355E00005C7530303030006E756C6C00747275B6
:10356E00650066616C73650074696D6500616E61FE
:10357E006C6F67000D0A00646573657269616C6932
:10358E007A652829206661696C65643A20006C654D
:10359E006400416363656C65726F6D65747265007E
:1035AE00783A00793A007A3A00546573742064755B
:1035BE002062617267726170680054657374206472
:1035CE00657320626F75746F6E7300426F75746FE2
:1035DE006E3A204F7565737420202000426F75740B
:1035EE006F6E3A20457374202020202000426F75A4
:1035FE00746F6E3A20537564202020202000426F95
:10360E0075746F6E3A204E6F726420202020005425
:10361E0065737420647520706F740056616C6575E7
:10362E007220706F74656E74696F6DC3A874726565
:10363E000054657374206475206A6F7973746963BE
:10364E006B0056616C65757220656E20593A2000CC
:10365E0056616C65757220656E20583A200054656F
:10366E007374206475206D6F746575720041637498
:10367E0069766565202020202020202020004465CA
:10368E0073616374697665652020202020200054C4
:10369E006573742044454C20626C657565004669FF
:1036AE006E20646573207465737473212121004F3D
:1036BE006B00456D707479496E70757400496E6358
:1036CE006F6D706C657465496E70757400496E76B9
:1036DE00616C6964496E707574004E6F4D656D6FE7
:0C36EE00727900546F6F44656570000035
:00000001FF
