:100000000C945F010C9490010C9490010C9490015D
:100010000C9490010C9490010C9490010C9490011C
:100020000C9490010C9490010C9490010C9490010C
:100030000C9490010C9490010C9490010C949001FC
:100040000C9490010C9490010C9490010C949001EC
:100050000C9490010C9490010C9490010C942B1032
:100060000C9490010C949F100C9475100C949001BA
:100070000C9490010C9490010C9490010C949001BC
:100080000C9490010C9490010C9490010C949001AC
:100090000C9490010C9490010C9490010C9490019C
:1000A0000C9490010C9490010C9490010C9490018C
:1000B0000C9490010C9490010C9490010C9490017C
:1000C0000C9490010C9490010C9490010C9490016C
:1000D0000C9490010C9490010C9490010C9490015C
:1000E0000C9490010C94DD010C94CF010C94FF0250
:1000F0000C94F9030C94D9010C9459030C94FA0351
:100100000C94A6030C94D5010C94C3020C94C20168
:100110000C94F0020C94F0010C94F1010C94130374
:100120000C94E3010C94BA010C94C5010C94D51005
:100130000C94F5010C9421030C94FD0A0C94CB0152
:100140000C94E7010C94B0010C94B6010C94EB01F3
:100150000C94BE010000803FCDCCCC3D6F12833AA1
:1001600095BFD6337D1D9026B3CE010C0000210033
:10017000240027002A002D00300033000101000078
:10018000040107010A0100002200250028002B00BD
:100190002E003100340002010000050108010B01AE
:1001A000000020002300260029002C002F00320030
:1001B0000001000003010601090105050505070509
:1001C00008080808020202020A0A080804040404D3
:1001D00001010101010101010303030303030303FF
:1001E000040707070C0C0C0C0C0C0C0C020202028E
:1001F00006060606060606060B0B0B0B0B0B0B0B77
:100200000102102020080810204010204080020128
:10021000020108040201010204081020408080400D
:10022000201008040201800402018040201008040C
:1002300002010804020101020408102040800102AA
:1002400004081020408000000A0B02090C0D0E0863
:10025000070304010000000000000000000000008F
:10026000000000000000000000000000000000008E
:10027000000012111000000000000000000000004B
:10028000000000000000000000000000000020410D
:100290000000C84200401C4620BCBE4CCA1B0E5A7F
:1002A000AEC59D74CDCCCC3D0AD7233C17B7D13811
:1002B00077CC2B329595E6241FB14F0AD510112427
:1002C0001FBECFEFD1E2DEBFCDBF00E00CBF24E008
:1002D000ACE2B3E001C01D92A330B207E1F713E036
:1002E000A0E0B2E0ECE1FBE200E00BBF02C007904F
:1002F0000D92AC32B107D9F711E0CFE5D1E000E0C3
:1003000006C021970109802FFE010E94DA14CE3524
:10031000D10780E00807A9F70E941F110C948C15E3
:100320000C9400008150823108F05AC0E82FF0E0B0
:100330008827E256FE4F8F4F0C94DA14BE01C2019B
:10034000B001B601BA01F001C501CB01CF01D50161
:10035000D901DD01E301E701F001EB01F101F50154
:10036000809180008F778093800008958091800035
:100370008F7DF9CF80918000877FF5CF84B58F770F
:1003800084BD089584B58F7DFBCF8091B0008F77B9
:100390008093B00008958091B0008F7DF9CF809157
:1003A00090008F77809390000895809190008F7DCA
:1003B000F9CF80919000877FF5CF8091A0008F7753
:1003C0008093A00008958091A0008F7DF9CF809147
:1003D000A000877FF5CF809120018F778093200147
:1003E0000895809120018F7DF9CF80912001877F32
:1003F000F5CFCF93DF93282F30E0F901EA5BFD4F73
:100400008491F901E050FE4FD491F901E654FE4F7A
:10041000C491CC23A1F081110E949201EC2FF0E055
:10042000EE0FFF1FE056FE4FA591B491EC91ED2326
:1004300081E090E009F480E0DF91CF91089580E0C1
:1004400090E0FACF1F93CF93DF93282F30E0F9018C
:10045000EA5BFD4F8491F901E050FE4FD491F90120
:10046000E654FE4FC491CC23A9F0162F81110E94AF
:100470009201EC2FF0E0EE0FFF1FEA57FE4FA5911F
:10048000B4918FB7F894EC91111108C0D095DE2388
:10049000DC938FBFDF91CF911F910895DE2BF8CFB2
:1004A000CF93DF9390E0FC01E050FE4F24918654FF
:1004B0009E4FFC0184918823D1F090E0880F991F12
:1004C000FC01E459FE4FA591B491FC01EA57FE4F9F
:1004D000C591D491623071F49FB7F8943C91822F0A
:1004E000809583238C93E8812E2B28839FBFDF91F7
:1004F000CF9108958FB7F894EC912E2B2C938FBF4A
:10050000F6CF863308F0865320917B00982F9870A1
:10051000277F922B90937B008770806480937C0070
:1005200080917A00806480937A0080917A0086FDC1
:10053000FCCF809178009091790008953FB7F894AE
:1005400080914A0390914B03A0914C03B0914D03CD
:1005500026B5A89B05C02F3F19F00196A11DB11D1E
:100560003FBFBA2FA92F982F8827BC01CD01620F5A
:10057000711D811D911D42E0660F771F881F991F15
:100580004A95D1F70895AF92BF92CF92DF92EF9242
:10059000FF920F931F93CF93DF936C017B018B012D
:1005A000040F151FEB015E01AE18BF08C017D1077D
:1005B00059F06991D601ED91FC910190F081E02D07
:1005C000C6011995892B79F7C501DF91CF911F914C
:1005D0000F91FF90EF90DF90CF90BF90AF90089574
:1005E000FC01538D448D252F30E0842F90E0821B39
:1005F000930B541710F0CF96089501970895FC01BE
:10060000918D828D981761F0A28DAE0FBF2FB11D15
:100610005D968C91928D9F5F9F73928F90E008956D
:100620008FEF9FEF0895FC01918D828D981731F027
:10063000828DE80FF11D858D90E008958FEF9FEF7B
:100640000895FC01918D228D892F90E0805C9F4F51
:10065000821B91098F73992708958EE493E00E947D
:10066000210321E0892B09F420E0822F0895FC0169
:10067000A48DA80FB92FB11DA35ABF4F2C91848D03
:1006800090E001968F739927848FA689B7892C9360
:10069000A089B1898C91837080648C93938D848DB3
:1006A000981306C00288F389E02D80818F7D8083B6
:1006B0000895EF92FF920F931F93CF93DF93EC0176
:1006C00081E0888F9B8D8C8D98131AC0E889F989F9
:1006D000808185FF15C09FB7F894EE89FF896083FC
:1006E000E889F98980818370806480839FBF81E07D
:1006F00090E0DF91CF911F910F91FF90EF900895BF
:10070000F62E0B8D10E00F5F1F4F0F731127E02E99
:100710008C8D8E110CC00FB607FCFACFE889F989D1
:10072000808185FFF5CFCE010E943703F1CFEB8D9D
:10073000EC0FFD2FF11DE35AFF4FF0829FB7F894A5
:100740000B8FEA89FB8980818062CFCFCF93DF93C3
:10075000EC01888D8823B9F0AA89BB89E889F989D9
:100760008C9185FD03C0808186FD0DC00FB607FC0E
:10077000F7CF8C9185FFF2CF808185FFEDCFCE0141
:100780000E943703E9CFDF91CF91089581E08093F4
:10079000440308950E942D03882319F081E080937B
:1007A000440380E090E0892B49F080E090E0892BC1
:1007B00029F00E94000081110E94000080E090E07A
:1007C000892B49F080E090E0892B29F00E940000FD
:1007D00081110E94000080E090E0892B49F080E0C8
:1007E00090E0892B29F00E94000081110C940000F8
:1007F0000895089590E080E008959C01FB013097F2
:1008000061F0948190789A609483C901330FAA0BA8
:10081000BB0B80839183A283B3830895FB01309740
:1008200029F0948190789660948380830895CF9383
:10083000DF93EC0188819981DC01ED91FC910190BD
:10084000F081E02D19952A813B81820F931F9B83B4
:100850008A83DF91CF910895CF93DF93EC01888154
:100860009981DC01ED91FC910280F381E02D1995D5
:100870002A813B81820F931F9B838A83DF91CF91D3
:1008800008958F929F92AF92BF92CF92DF92EF9294
:10089000FF920F931F93CF93DF93CDB7DEB7669789
:1008A0000FB6F894DEBF0FBECDBF6C018E01095E9E
:1008B0001F4F78018AE0882E912CA12CB12CCB01FE
:1008C000BA01A50194010E94B814942F852F605D90
:1008D000F80162938F01A901692F782F4115510505
:1008E0006105710561F7A7014E1B5F0BBF01C601D2
:1008F0000E942C0466960FB6F894DEBF0FBECDBFE3
:10090000DF91CF911F910F91FF90EF90DF90CF90EB
:10091000BF90AF909F908F90089580339CF08A3362
:1009200024F08F3524F08B3724F481E0089581344E
:100930004CF08B35D4F393ED980F81E09230B0F307
:1009400080E008958B32B9F7F0CF0F931F93CF93C8
:10095000DF93EC018C85811140C009851A852FB782
:10096000F8948091460390914703A0914803B09179
:1009700049032FBFF80180879187A287B387D801E9
:10098000ED91FC910284F385E02DC801199597FF44
:100990002AC02FB7F8948091460390914703A09105
:1009A0004803B09149032FBFF80140855185628506
:1009B0007385841B950BA60BB70B4481558166810B
:1009C000778184179507A607B707C8F28FEF9FEFC7
:1009D00097FD80E08B8781E08C878B85DF91CF91BD
:1009E0001F910F9108959927F3CF1F93CF93DF9312
:1009F000EC01162F0E94A504811306C01C8681E01D
:100A0000DF91CF911F91089580E0FACFCF93DF93CC
:100A1000EC01CE010E94A5048B303CF489304CF4EB
:100A2000882349F081E0888710C08D3011F0803232
:100A3000C9F71C86EECF888581110AC081E090E05D
:100A4000C15BDF4F9983888380E0DF91CF91089568
:100A500082E090E0F5CF0895FC0124813581A90161
:100A60004F5F5F4F868197814817590748F482810D
:100A7000938155834483FC01E20FF31F6083089543
:100A80000190F081E02D81E0808708959F92AF92E0
:100A9000BF92CF92DF92EF92FF920F931F93CF936B
:100AA000DF9300D01F921F92CDB7DEB78C010E945A
:100AB000A504D82ED8011C961C92F12CE12C60EFD5
:100AC000C62EC8010E94A504F8011486D81609F4A0
:100AD000BDC0811119C0F801E15BFF4F82E090E0D9
:100AE0009183808380E00F900F900F900F900F9074
:100AF000DF91CF911F910F91FF90EF90DF90CF90FA
:100B0000BF90AF909F9008958C3509F09DC0C801AB
:100B10000E94A5048823F9F2EAE2F2E0853709F0A1
:100B200087C0D8011C961C9254E0952EB12CA12CA4
:100B3000C8010E94A504882371F281344CF48053CB
:100B4000803148F0F801E15BFF4F83E090E0C8CFCF
:100B50008F7D8753F5CF44E0AA0CBB1C4A95E1F783
:100B6000A82AF80114869A949110E2CFC501985DE5
:100B70008115944020F4750123E0F222A2CFC50133
:100B80009C5D81159440A8F4B3E0BB22B701762F99
:100B90006627770F770F6A297B2990E080E001961E
:100BA000603871058105910540F4C8010E942C054B
:100BB00088CFB50190E080E0F3CF1982262F2F7304
:100BC00020682A8326E096958795779567952A95DC
:100BD000D1F76032710580F4606C6B835E01E4E0F4
:100BE000AE0EB11CD5016E915D01662309F469CF8B
:100BF000C8010E942C05F6CF262F2F7320682B8367
:100C000086E0769567958A95E1F76031710538F44D
:100C1000606E6C835E01F5E0AF0EB11CE3CF6068DF
:100C20006C83CD825E0126E0A20EB11CDBCF329632
:100C30009081992309F486CF8913F9CF8181882384
:100C400009F480CFF8011486682FAFCF0190F081AE
:100C5000E02D8085882331F0F801E15BFF4F84E0CF
:100C600090E03ECF81E03FCFCF93DF93DC01EB01FB
:100C7000EC81FD818A819B810896E817F90740F491
:100C800081E08887F0E0E0E0CF01DF91CF91089527
:100C90003897FD83EC833097B9F31296CD91DC91B0
:100CA0001397209791F0CF018C1B9D0B23E0959516
:100CB00087952A95E1F78D831396FC93EE9312970F
:100CC0001582148217821682DFCF1196FC93EE9361
:100CD000F3CFEF92FF920F931F93CF93DF937C019B
:100CE000DC0112962D913C911397ED91FC91AB0193
:100CF000420F531FEF01C60FD71FC217D307A0F42F
:100D0000888181110BC0E901CF014C175D0751F0BB
:100D10000991DC011D91CD010117B9F38191811178
:100D2000FDCFE8CF309751F4620F731FCB010196CE
:100D3000F70193838283DB011C92F901CF01DF91DC
:100D4000CF911F910F91FF90EF900895FC012581A5
:100D5000222339F0F8E02F0290011124820F931F13
:100D6000089590E080E00895FC0101900020E9F7EB
:100D70003197AF01481B590BBC018EE493E00C94F2
:100D8000C302FB0101900020E9F73197AF01461B38
:100D9000570B0C942C041F93CF93DF93EAE2F2E0FD
:100DA0001281112379F0329621816213F9CFEC017F
:100DB0006CE50E941704612FCE01DF91CF911F9146
:100DC0000C9417046111F9CF6BE372E0DF91CF91BE
:100DD0001F910C94C1062F923F924F925F926F9297
:100DE0007F928F929F92AF92BF92CF92DF92EF92BB
:100DF000FF920F931F93CF93DF93CDB7DEB76C971E
:100E00000FB6F894DEBF0FBECDBF8C011B01DC0115
:100E100014968C9114978F77863009F492C268F5F6
:100E20008230A0F11296ED90FC901397CC90119621
:100E3000DC90843008F056C2A701B601C1010E94BF
:100E40002C04F101828193816C960FB6F894DEBF79
:100E50000FBECDBFDF91CF911F910F91FF90EF900B
:100E6000DF90CF90BF90AF909F908F907F906F90CA
:100E70005F904F903F902F9008958C3069F160F40F
:100E8000883009F459C28A3009F43FC262E472E042
:100E9000C1010E94C106E5C1803209F4ECC1803471
:100EA000A9F76BE5C1010E941704F80100811181C7
:100EB0000115110509F4DAC1B101C8010E94EB0660
:100EC000C8010E94A6068C01892B09F4CFC16CE2EF
:100ED000C1010E941704ECCFF801C080D180E280EC
:100EE000F380A7019601C701B6010E946613811124
:100EF000CDCF20E030E0A901C701B6010E94661302
:100F0000882379F0A7019601C701B6010E94E31476
:100F10009B01AC01C701B6010E946613882309F446
:100F2000B5CF20E030E0A901C701B6010E946613E9
:100F300087FF08C06DE2C1010E941704F7FAF09420
:100F4000F7F8F09420E836E948E15BE4C701B60120
:100F50000E947E1587FD81C074E1A72EB12C00E2AE
:100F600010E0188E1F8AF501E457FD4F2591359149
:100F700045915491C701B6010E947E1587FD13C0AB
:100F8000F501EC55FD4F2591359145915491C701DF
:100F9000B6010E94CC136B017C012F89388D200F84
:100FA000311F388F2F8B1595079534E0A31AB108A0
:100FB0008CEFA8168FEFB806B1F655245A9420E0AE
:100FC00030E0A901C701B6010E947E1518160CF089
:100FD0004BC02CEA35EC47E257E3C701B6010E944B
:100FE000661318160CF440C0A52DB4E0AB02C00186
:100FF0001124B12CA12CFC01EC5AFE4F3F019C01A5
:1010000024573D4F49013FEF531671F1F301EA0DAB
:10101000FB1D2591359145915491C701B6010E9460
:10102000661387FF13C0F401EA0DFB1D259135916E
:1010300045915491C701B6010E94CC136B017C010C
:101040008F89988D801B910B988F8F8B15950795A5
:101050005A9494E0A91AB108D6CF00E210E055E006
:10106000552E188E1F8AABCFC701B6010E944F15AF
:101070004B015C012B013C0106E080E492E4AFE00F
:10108000B0E0898F9A8FAB8FBC8F102F01509AE000
:101090004916510461047104C8F0698D7A8D8B8DF5
:1010A0009C8D2AE030E040E050E00E94B814298F87
:1010B0003A8F4B8F5C8FC301B2012AE030E040E0F1
:1010C00050E00E94B81429013A01DFCFC501B401F4
:1010D0000E946B139B01AC01C701B6010E94E21490
:1010E0006B017C01698D7A8D8B8D9C8D0E946B13B9
:1010F0009B01AC01C701B6010E94CC132B013C013E
:101100000E944F156B017C010E946B139B01AC0187
:10111000C301B2010E94E2149B01AC010E94E314DE
:101120000E944F15C60ED71EE81EF91E898D9A8D96
:10113000AB8DBC8DC816D906EA06FB06D8F09FEF2A
:10114000891A990AA90AB90AAF89B88DAB2B39F166
:10115000BAE08B169104A104B10408F1EF89F88D6F
:101160003196F88FEF8BC12CD12C7601812C912CEC
:10117000540183942AE0422E512C612C712CC7011A
:10118000B601A30192010E94B814672B682B692B4A
:1011900051F4111644F469017A011150F0CFC12CB9
:1011A000D12C7601E7CFB501A401C1010E94410411
:1011B000112371F14E01F1E18F0E911C012F5401A9
:1011C0009AE0492E512C612C712C015068F0C70116
:1011D000B601A30192010E94B814605DD4016E9320
:1011E0004D0169017A01F1CF812F90E0BC0160953A
:1011F0007095F501E81BF90B31978EE28083442747
:101200005527461B570B6A0D7B1DC1010E942C04FC
:10121000EF89F88DEF2B29F165E6C1010E941704D3
:101220000F89188D17FF07C06DE2C1010E941704D6
:10123000119501951109FE0177969F018AE0E82E2C
:10124000F12CC801B7010E94A414805D82938B0128
:10125000672BB9F7A9014E1B5F0BBF01C1010E94AB
:101260002C04D10112968D919C91EECD6DE5C101BA
:101270000E941704F6CF6BE7C1010E941704F80122
:10128000008111810115110559F1D8011696CC90F4
:1012900016971796DC9062E2C1010E94170476014E
:1012A000F70161917F01662321F0C1010E94CB0605
:1012B000F7CF62E2C1010E9417046AE3C1010E94F4
:1012C0001704B101C8010E94EB06C8010E94A606DE
:1012D0008C01892B29F06CE2C1010E941704D2CF46
:1012E0006DE7C5CF62E2C1010E9417048601E00EDE
:1012F000F11EE016F10639F0F80161918F01C1018C
:101300000E94CB06F6CF62E2B2CFCD90DD90ED9099
:10131000FC90B701A601F7FE0BC06DE2C1010E946F
:10132000170444275527BA014C195D096E097F0936
:10133000C1010E94410485CD4D915D916D917C91DB
:10134000F7CF8C9167E472E0811102C06CE472E027
:10135000C1010E94C10675CDCF93DF93EC0160E01F
:101360008E810E94220261E08E810E94220260E052
:101370008E810E9422028BE891E00197F1F7DF91C4
:10138000CF910895CF92DF92EF92FF920F931F9328
:10139000CF93DF936C017C0187E0E80EF11CD0E075
:1013A000C0E0062F10E0B8010C2E02C075956795BD
:1013B0000A94E2F76170F70181917F010E94220295
:1013C0002196C430D10579F7C601DF91CF911F91E5
:1013D0000F91FF90EF90DF90CF900C94AC09CF92DB
:1013E000DF92EF92FF920F931F93CF93DF93EC0165
:1013F000F62E642F8C810E9422028D818F3F19F07E
:1014000060E00E9422020F2D10E08F8584FF25C02E
:101410006E0187E0C80ED11CF12CE12CB8010E2C16
:1014200002C0759567950A94E2F76170F6018191A3
:101430006F010E942202FFEFEF1AFF0A88E0E81610
:10144000F10461F7CE01DF91CF911F910F91FF90D1
:10145000EF90DF90CF900C94AC09B80184E07595C3
:1014600067958A95E1F7CE010E94C2096F2DCE01E2
:10147000DF91CF911F910F91FF90EF90DF90CF9070
:101480000C94C209CF93DF93823029F49091FA0330
:1014900098609093FA038093FE031092FF0380E418
:1014A0008093000480E18093010480E5809302042E
:1014B00061E08091EF030E9450028091F0038F3F22
:1014C00019F061E00E94500261E08091F1030E94F6
:1014D0005002CBEED3E09E012B5E33408091FA03A5
:1014E00084FD0BC084E090E021962817390744F46E
:1014F00061E08E810E945002EECF88E090E0F4CF50
:101500008BE39DE00197F1F760E08091EF030E948B
:10151000220260E08091F1030E9422028091F00398
:101520008F3F19F060E00E9422026091FA0364FD8F
:1015300045C063E08BEE93E00E94C209CBE4D6E4A1
:10154000CE010197F1F763E08BEE93E00E94C209B0
:101550002197F1F763E08BEE93E00E94C20983E5E7
:1015600092E00197F1F762E08BEE93E00E94C209EE
:101570006091FA03606240E08BEE93E00E94EF0915
:1015800084E08093FB0340E06CE08BEE93E00E94EC
:10159000EF0940E061E08BEE93E00E94EF098BE3FE
:1015A0009FE10197F1F782E08093FC0340E066E061
:1015B0008BEE93E0DF91CF910C94EF09606240E0F5
:1015C0008BEE93E00E94EF098BE496E40197F1F72C
:1015D0006091FA03606240E08BEE93E00E94EF09B5
:1015E00083E592E00197F1F76091FA03606240E0D1
:1015F0008BEE93E00E94EF09BBCF41E00E94EF0920
:1016000081E090E008950F931F93CF93DF93D0E094
:10161000C0E06115710591F08B01FC01C081D181A1
:10162000209761F06E817F81C8010E948315892B0C
:1016300029F0CE010E94A606EC01F2CFCE01DF9187
:10164000CF911F910F9108954F925F926F927F9269
:10165000BF92CF92DF92EF92FF920F931F93CF939F
:10166000DF93EC018B01E42E0E940605F82E811118
:1016700010C0F12C8F2DDF91CF911F910F91FF9012
:10168000EF90DF90CF90BF907F906F905F904F90E2
:101690000895CE010E94A504873209F42BC10CF5F0
:1016A000823209F427C1CE010E94A504B82E6E0132
:1016B000FFE0CF0ED11CE12C36018B2D0E948D0452
:1016C000882309F443C12FE3E21609F43FC11C86C5
:1016D000E394F601B1926F01CE010E94A504B82EE9
:1016E000ECCF8B3509F44AC08B37E9F6F8018481D9
:1016F0008078806284831182108213821282EE20AD
:1017000009F447C01C86CE010E940605882309F40F
:10171000B0CF6DE7CE010E94F504D82E8111AACF7B
:10172000CC24C394EA94E881F981828193819B83DC
:101730008A838481958122813381821B930B9F83CD
:101740008E831D821C82892B09F4C086CE010E94E3
:10175000A504873209F45DC0823209F45AC0CE0173
:101760000E94A504F82E0E948D04811159C0C15B0E
:10177000DF4F83E090E09983888350C0F801848133
:101780008078806484831182108213821282E11037
:1017900007C0C15BDF4F85E090E09983888369CF04
:1017A0001C86CE010E940605882309F462CF6DE5F0
:1017B000CE010E94F50481115DCFEA946D857E858E
:1017C000C8010E943406009729F4C15BDF4F84E012
:1017D00090E0E3CF4E2DBC01CE010E94240B882364
:1017E00009F447CFCE010E940605882309F441CFB2
:1017F0006DE5CE010E94F50481113CCF6CE2CE0173
:101800000E94F5048111DACFC15BDF4F83E090E0E5
:10181000C4CFCE010E944605811119C0FD2C2ACFEC
:101820001C866F2DCE010E942C05CE010E94A504BE
:10183000F82E0E948D048111F3CFE881F981808513
:10184000882329F0C15BDF4F84E090E094CFCE0184
:101850000E940605882311F36AE3CE010E94F50475
:10186000882309F484CFEA81FB818C819D81E80F74
:10187000F91F10826C807D806A817B81C8010E9483
:10188000030BBC01892BA1F4B301888199810E94CB
:1018900069063C016D857E85C8010E943406FC0105
:1018A000892B81F284818068848377826682BF017C
:1018B0004E2DCE010E94240B882309F4AFCFCE0118
:1018C0000E940605882309F4A9CF6DE7CE010E9486
:1018D000F50481110DC06CE2CE010E94F50488234D
:1018E00009F445CFCE010E94060581111CCF96CF89
:1018F000D82E94CFE881F981828193819B838A835A
:101900008481958122813381821B930B9F838E83F7
:101910001D821C82892B11F481E08087CE010E94F8
:101920004605F82E882309F4A4CECC80DD80B601CC
:10193000888199810E946906F801248120782560B8
:10194000248391838083D382C28294CEFE01EE0DE4
:10195000F11D17868F85843781F4F80184818078A2
:101960008660848381E08083F4E0EF1609F482CE00
:10197000C15BDF4F82E090E010CF863641F4F80182
:1019800084818078866084831082F5E0EECF8E3685
:1019900021F424E0E212ECCF6DCE8B32D9F1F301C9
:1019A0008D32D1F5FE017096BF2C808190ED980F9D
:1019B0009A3018F08E3209F027CF6F0160E070E0A6
:1019C000CB01F6012191A0ED4A2E420E39E03415EB
:1019D00028F16A3949E97407840749E1940740F519
:1019E000AAE0B0E09B01AC010E948A14512C712C3A
:1019F000612CA301920120953095409550952617B2
:101A0000370748075907A0F0640D751D861D971DFF
:101A10006F01D7CFFE017096B12CC7CF211108C03E
:101A2000BB2071F161307105810550E89507A0F088
:101A3000E12CEAE04E2E512C612C712C61157105C0
:101A4000F0E88F07910530F1A30192010E94B814CC
:101A5000CA01B901E394F2CFF801248120782A6009
:101A600024839B01AC0188279927DC01821B930BFF
:101A7000A40BB50B80839183A283B383FB2CFACD97
:101A8000F801248120782860248360837183828315
:101A90009383F0CDD601F60121916F0130ED320F25
:101AA0003A3010F4E394F6CF2E32F1F4FD01319682
:101AB000DF0131962C9150EDD52ED20E29E02D1557
:101AC00098F06C3C3CEC73073CE08307910580F791
:101AD000AAE0B0E09B01AC010E948A146D0D711D5B
:101AE000811D911DEA94E4CF2C912F7D253409F0BE
:101AF0008CC011962C9111972D32D9F512967F2C0E
:101B0000FD0130E020E0CE2C0E2C000CDD084AE078
:101B1000542EDF01619040ED460D4A3008F043C07D
:101B2000529EA001539E500D1124262D660C330B9E
:101B300020533109240F351FA601420F531F47328E
:101B400051053CF3F80184817720D1F040E050E06A
:101B500060E070E8B11003C040E050E0BA01807866
:101B60008C60F80184834083518362837383F72CF4
:101B700081CD2B3219F01196712CC2CF1296FCCF69
:101B800040E050E060E87FEFB11004C040E050E07A
:101B900060E87FE780788C60F8018483408351831C
:101BA0006283738367CD772019F0319521953109D0
:101BB0004C91411129CEE901CE0DD11DE7FCDA95FA
:101BC0000E946B131C161D061CF5E12CC0FF0CC0F7
:101BD00024E0E29EF0011124E457FD4F2591359158
:101BE000459154910E94CC13D595C795E3942097C5
:101BF00069F7B1109058F801248120782C60248373
:101C0000608371838283938335CD30E020E0D0CF31
:101C1000D195C195D109E12C209759F3C0FF0CC093
:101C200044E0E49EF0011124EC55FD4F25913591DF
:101C3000459154910E94CC13D595C795E394ECCF70
:101C4000EF92FF920F931F93CF93DF93EC018C8160
:101C5000982F9F7739F4807880628C83198218825C
:101C60001B821A828C8185FF1DC061157105D1F020
:101C70007A018B01CE010E94030B009761F4B7013A
:101C8000CE010E943406009731F0FC0124812F77A9
:101C9000248317830683DF91CF911F910F91FF90CB
:101CA000EF90089590E080E0F6CF0F931F93CF93CD
:101CB000DF93CDB7DEB7C650D2400FB6F894DEBF83
:101CC0000FBECDBFCE010F969A8389839C838B83F1
:101CD0008E010D5F1D4F1E830D8318870F8319869C
:101CE0001E86AE014F5F5F4F62E572E005970E946E
:101CF000200EBC0180914203909143030E94FD039A
:101D0000AE014F5F5F4F6BE572E0CE010A960E9415
:101D1000200EBC0180913303909134030E94FD0397
:101D2000AE014F5F5F4F68E672E0CE010A960E94F7
:101D3000200EBC0180913103909132030E94FD037B
:101D4000AE014F5F5F4F64E772E0CE010A960E94DA
:101D5000200EBC0180912F03909130030E94FD035F
:101D6000AE014F5F5F4F6EE772E0CE010A960E94B0
:101D7000200EBC0180912D0390912E030E94FD0343
:101D8000AE014F5F5F4F69E872E0CE010A960E9494
:101D9000200EBC0180913B030E940E04AE014F5FF8
:101DA0005F4F67E972E0CE010A960E94200EBC01E7
:101DB00080913C030E940E04AE014F5F5F4F64EAC6
:101DC00072E0CE010A960E94200EBC0180913D0374
:101DD0000E940E04AE014F5F5F4F6FEA72E0CE01CA
:101DE0000A960E94200EBC0180913A030E940E04C4
:101DF000AE014F5F5F4F6BEB72E0CE010A960E941F
:101E0000200EBC01809139030E940E04AE014F5F89
:101E10005F4F62EC72E0CE010A960E94200EBC0178
:101E2000809138030E940E04AE014F5F5F4F6AEC51
:101E300072E0CE010A960E94200EBC01809135030B
:101E4000909136030E94FD03809137038823A1F00F
:101E50008EE493E0F8019183808313821282B801AB
:101E6000CE010A960E94EB0681ED92E00E94B40634
:101E70001092370310922C03CA5FDD4F0FB6F8940F
:101E8000DEBF0FBECDBFDF91CF911F910F9108959F
:101E90000F931F93CF93DF93CDB7DEB7C356D240D6
:101EA0000FB6F894DEBF0FBECDBFCE010F969A835A
:101EB00089839C838B8383E092E08C0F9D1F9E839C
:101EC0008D8398878F8319861E8682509240C45ACC
:101ED000DD4F99838883CC55D24028E0FE01E45A37
:101EE000FD4FDE01AC5ABD4F01900D922A95E1F7EE
:101EF00028E0FE01EC5AFD4FDE01AD5FBD4F0190C1
:101F00000D922A95E1F7C55FDD4F1882CB50D24084
:101F10002EE433E0C45FDD4F39832883CC50D240B8
:101F2000C15FDD4F1882CF50D240C05FDD4F998333
:101F30008883C051D240CE5ADD4F19821882C255D3
:101F4000D2404AE0BE01665F7F4F8E5F9D4F0E9488
:101F5000240BCE5ADD4F08811981C255D24001159C
:101F6000110501F5C25FDD4F8881CE50D240882334
:101F7000C9F08E8583FF16C01092440303E010E081
:101F800084ED92E00E94B406000F111FF801E050AA
:101F9000FE4F808191810097C9F581ED92E00E940A
:101FA000B40608C0109244030115110549F78E8547
:101FB00085FD0CC0CD59DD4F0FB6F894DEBF0FBEC6
:101FC000CDBFDF91CF911F910F9108956BEE72E01D
:101FD000CE010A960E94030B009761F3FC018481F5
:101FE0008F7741F36BEE72E0CE010A960E94030BED
:101FF000FC01892B71F194819F77983009F148F4A5
:10200000992339F19630B1F011E015C00E94B40661
:10201000C4CF9A30A9F09C30B9F711E020E030E04D
:10202000A90160817181828193810E94661381116F
:1020300002C00FC01081612F87E00E942202BACF38
:1020400011E080819181A281B381892B8A2B8B2B16
:1020500091F710E0F0CF1F920F920FB60F9211245C
:102060002F933F938F939F93AF93BF93809146039A
:1020700090914703A0914803B091490330914503E3
:1020800023E0230F2D3758F50196A11DB11D209394
:1020900045038093460390934703A0934803B0936E
:1020A000490380914A0390914B03A0914C03B09156
:1020B0004D030196A11DB11D80934A0390934B03DC
:1020C000A0934C03B0934D03BF91AF919F918F911B
:1020D0003F912F910F900FBE0F901F90189526E8FB
:1020E000230F0296A11DB11DD2CF1F920F920FB6E2
:1020F0000F9211240BB60F922F933F934F935F9340
:102100006F937F938F939F93AF93BF93EF93FF93BF
:102110008EE493E00E943703FF91EF91BF91AF915E
:102120009F918F917F916F915F914F913F912F91EF
:102130000F900BBE0F900FBE0F901F9018951F921F
:102140000F920FB60F9211240BB60F922F938F930D
:102150009F93EF93FF93E0915E03F0915F03808183
:10216000E0916403F091650382FD1DC09081809130
:1021700067038F5F8F7320916803821741F0E091AE
:102180006703F0E0E25BFC4F958F80936703FF915C
:10219000EF919F918F912F910F900BBE0F900FBEDB
:1021A0000F901F9018958081F2CFEEE4F3E0138238
:1021B000128288EE93E0A0E0B0E084839583A6834A
:1021C000B78380E192E09183808385EC90E09587EE
:1021D000848784EC90E09787868780EC90E0918BF1
:1021E000808B81EC90E0938B828B82EC90E0958BDE
:1021F000848B86EC90E0978B868B118E128E138EDB
:10220000148EEBEEF3E01382128282E292E091836D
:1022100080838CE084838FEF85838BE0868385E0E9
:10222000878384E0808783E0818782E082871386CA
:10223000148615861686178681E00C94420A7894D7
:1022400084B5826084BD84B5816084BD85B58260BB
:1022500085BD85B5816085BD80916E00816080936C
:102260006E001092810080918100826080938100D5
:1022700080918100816080938100809180008160E5
:10228000809380008091B10084608093B100809140
:10229000B00081608093B000809191008260809353
:1022A00091008091910081608093910080919000D5
:1022B0008160809390008091A10082608093A10052
:1022C0008091A10081608093A1008091A000816035
:1022D0008093A000809121018260809321018091F0
:1022E0002101816080932101809120018160809390
:1022F000200180917A00846080937A0080917A0036
:10230000826080937A0080917A00816080937A0065
:1023100080917A00806880937A001092C100E091E9
:102320005E03F0915F0382E08083E0915A03F091B5
:102330005B031082E0915C03F0915D0380E1808398
:1023400010926603E0916203F091630386E080835C
:10235000E0916003F0916103808180618083E0916E
:102360006003F0916103808188608083E091600365
:10237000F0916103808180688083E0916003F09137
:10238000610380818F7D808361E087E00E9450023D
:1023900060E087E00E94220261E086E10E94500234
:1023A00061E088E10E94500261E08AE10E945002EF
:1023B00061E08CE10E94500261E08EE10E945002D7
:1023C00061E080E20E94500261E082E20E945002DD
:1023D00061E084E20E94500261E086E20E945002C5
:1023E00061E088E20E94500262E082E30E945002B3
:1023F00062E083E30E94500262E084E30E945002A4
:1024000062E085E30E94500261E08AE20E9450028D
:1024100082E00E94420A61E081E20E945002C1E033
:1024200092E0E92EF12CCC24C394D12C809144036A
:10243000882321F00E94480F0E94550E009142030C
:102440001091430386E30E9481029801281B390BF7
:102450002530310514F0C093370386E30E948102D2
:10246000801B910B059714F0C093370386E30E94FD
:102470008102909343038093420382E30E94F90117
:102480009093340380933303892B11F4C093370363
:1024900083E30E94F9019093320380933103892BE7
:1024A00011F4C093370384E30E94F9019093300341
:1024B00080932F03892B11F4C093370385E30E9487
:1024C000F90190932E0380932D03892B11F4C0936F
:1024D00037038BE30E9481028F35914094F48BE3A4
:1024E0000E9481028E32914064F080913503909178
:1024F0003603029731F0C0933703F0923603E0922F
:1025000035038BE30E9481028A32914094F48BE37D
:102510000E9481028631914064F080913503909150
:102520003603019731F0C0933703D0923603C0923F
:1025300035038BE30E9481028331914094F48BE355
:102540000E9481028A3F910564F080913503909149
:102550003603892B31F0C093370310923603109263
:1025600035038BE30E94810288E30E9481028C0183
:10257000909341038093400387E30E9481029093EC
:102580003F0380933E0320913D0321113CC02091E5
:102590003C03211138C020913B03211134C020910C
:1025A0003A03211130C02091390321112CC0209110
:1025B0003803211128C0853823E092070CF460C04D
:1025C0009801275931092938324008F068C0C09372
:1025D0003A03C09337030436110564F4893C91052E
:1025E0000CF46DC0803223E0920724F4C0933C03C6
:1025F000C0933703833533E093070CF460C0C09376
:102600003803C0933703095C11090735124088F479
:10261000895C91098735924060F410923D031092D5
:102620003C0310923B0310923A031092390310922C
:1026300038030E949E022B013C0182E3882E912CDC
:10264000A12CB12C0E949E02641975098609970974
:10265000683E734081059105A8F331E0831A910823
:10266000A108B10848EE440E43E0541E611C711CE1
:1026700081149104A104B10429F70E94CA03D6CEA3
:102680008436910564F4093C11050CF4A4CF0032A2
:1026900023E0120724F4C0933D03C09337030538A9
:1026A00033E013070CF497CF9C01295C31092735DF
:1026B000324008F09FCFC0933B03C0933703863965
:1026C00091050CF0A0CFC09339039BCF0E94A813B3
:1026D00008F481E00895E89409C097FB3EF49095D2
:1026E0008095709561957F4F8F4F9F4F9923A9F0EB
:1026F000F92F96E9BB279395F6958795779567957A
:10270000B795F111F8CFFAF4BB0F11F460FF1BC0BD
:102710006F5F7F4F8F4F9F4F16C0882311F096E950
:1027200011C0772321F09EE8872F762F05C06623FE
:1027300071F096E8862F70E060E02AF09A95660FB7
:10274000771F881FDAF7880F9695879597F9089570
:10275000990F0008550FAA0BE0E8FEEF16161706B2
:10276000E807F907C0F012161306E407F50798F01A
:10277000621B730B840B950B39F40A2661F0232B33
:10278000242B252B21F408950A2609F4A140A695AF
:102790008FEF811D811D08950E94DF130C9450144A
:1027A0000E94421438F00E94491420F0952311F041
:1027B0000C9439140C943F1411240C9484140E942A
:1027C000611470F3959FC1F3950F50E0551F629F00
:1027D000F001729FBB27F00DB11D639FAA27F00D7A
:1027E000B11DAA1F649F6627B00DA11D661F829FA1
:1027F0002227B00DA11D621F739FB00DA11D621F86
:10280000839FA00D611D221F749F3327A00D611DA2
:10281000231F849F600D211D822F762F6A2F112484
:102820009F5750409AF0F1F088234AF0EE0FFF1FB7
:10283000BB1F661F771F881F91505040A9F79E3F0E
:10284000510580F00C9439140C9484145F3FE4F328
:10285000983ED4F3869577956795B795F795E79564
:102860009F5FC1F7FE2B880F911D9695879597F96D
:10287000089597F99F6780E870E060E008959FEF02
:1028800080EC089500240A94161617061806090607
:10289000089500240A9412161306140605060895D6
:1028A000092E0394000C11F4882352F0BB0F40F45E
:1028B000BF2B11F460FF04C06F5F7F4F8F4F9F4F9E
:1028C000089557FD9058440F551F59F05F3F71F020
:1028D0004795880F97FB991F61F09F3F79F0879587
:1028E0000895121613061406551FF2CF4695F1DF10
:1028F00008C0161617061806991FF1CF86957105A0
:10290000610508940895E894BB2766277727CB01D3
:1029100097F908950E949514A59F900DB49F900D6E
:10292000A49F800D911D11240895A29FB001B39F13
:10293000C001A39F700D811D1124911DB29F700DC8
:10294000811D1124911D0895AA1BBB1B51E107C0D5
:10295000AA1FBB1FA617B70710F0A61BB70B881F2F
:10296000991F5A95A9F780959095BC01CD010895BE
:10297000A1E21A2EAA1BBB1BFD010DC0AA1FBB1F83
:10298000EE1FFF1FA217B307E407F50720F0A21BF5
:10299000B30BE40BF50B661F771F881F991F1A9462
:1029A00069F760957095809590959B01AC01BD018C
:1029B000CF010895EE0FFF1F881F8BBF0790F69180
:1029C000E02D19945058BB27AA270E94FA140C94A2
:1029D00050140E94421438F00E94491420F039F437
:1029E0009F3F19F426F40C943F140EF4E095E7FB96
:1029F0000C943914E92F0E94611458F3BA17620736
:102A000073078407950720F079F4A6F50C948314D6
:102A10000EF4E0950B2EBA2FA02D0B01B9019001F9
:102A20000C01CA01A0011124FF27591B99F0593F3D
:102A300050F4503E68F11A16F040A22F232F342F85
:102A40004427585FF3CF469537952795A795F040D3
:102A50005395C9F77EF41F16BA0B620B730B840BE8
:102A6000BAF09150A1F0FF0FBB1F661F771F881FA0
:102A7000C2F70EC0BA0F621F731F841F48F48795F8
:102A800077956795B795F7959E3F08F0B0CF9395EA
:102A9000880F08F09927EE0F9795879508950E9463
:102AA000691488F09F5798F0B92F9927B751B0F063
:102AB000E1F0660F771F881F991F1AF0BA95C9F7C2
:102AC00014C0B13091F00E948314B1E008950C94C9
:102AD0008314672F782F8827B85F39F0B93FCCF37C
:102AE000869577956795B395D9F73EF4909580953F
:102AF000709561957F4F8F4F9F4F08950E94A81347
:102B000008F48FEF0895FB01DC018D91019080198D
:0C2B10000110D9F3990B0895F894FFCF41
:102B1C00EF02F202FD020D031A0323030000000072
:102B2C005903C302F002A6032103FF0213030000A2
:102B3C000000FD0AC302FA03F9032F2F22225C5C6A
:102B4C006208660C6E0A720D7409005C75303030C8
:102B5C0030006E756C6C00747275650066616C7318
:102B6C006500706F74656E74696F00426F75746F79
:102B7C006E47617563686500426F75746F6E447261
:102B8C006F697400426F75746F6E42617300426FAF
:102B9C0075746F6E4861757400636C6176696572EB
:102BAC0047617563686500636C6176696572447230
:102BBC006F697400636C617669657242617300635E
:102BCC006C617669657248617574006A65754261FD
:102BDC0073006A65754861757400616363656C5850
:102BEC00000D0A00646573657269616C697A652809
:102BFC0029206661696C65643A20006C6564004F3D
:102C0C006B00456D707479496E70757400496E6314
:102C1C006F6D706C657465496E70757400496E7675
:102C2C00616C6964496E707574004E6F4D656D6FA3
:0C2C3C00727900546F6F446565700000F1
:00000001FF
