:100000000C9452010C9483010C9483010C94830191
:100010000C9483010C9483010C9483010C94830150
:100020000C9483010C9483010C9483010C94830140
:100030000C9483010C9483010C9483010C94830130
:100040000C9483010C9483010C9483010C94830120
:100050000C9483010C9483010C9483010C94370F4E
:100060000C9483010C94AB0F0C94810F0C948301BE
:100070000C9483010C9483010C9483010C948301F0
:100080000C9483010C9483010C9483010C948301E0
:100090000C9483010C9483010C9483010C948301D0
:1000A0000C9483010C9483010C9483010C948301C0
:1000B0000C9483010C9483010C9483010C948301B0
:1000C0000C9483010C9483010C9483010C948301A0
:1000D0000C9483010C9483010C9483010C94830190
:1000E0000C9483010C94E1010C94D8010C94F90157
:1000F0000C94D4010C9401020C94E5010C94FD02C3
:100100000C94B5010C94C5020C94E10F0C94D00131
:100110000C944A030C94870A0C94EF010C94670228
:100120000C940B020C94F3010C94EB010C949D03C2
:100130000C94BA010C949E030C9494020C94CC0180
:100140000C94A3020C94FD010C94B7020C94DB01F7
:100150000C9407020000803FCDCCCC3D6F12833A57
:1001600095BFD6337D1D9026B3CE010C0000210033
:10017000240027002A002D00300033000101000078
:10018000040107010A0100002200250028002B00BD
:100190002E003100340002010000050108010B01AE
:1001A00005050505070508080808020202020A0AF3
:1001B0000808040404040101010101010101030311
:1001C000030303030303040707070C0C0C0C0C0CBC
:1001D0000C0C0202020206060606060606060B0BB9
:1001E0000B0B0B0B0B0B01021020200808102040FA
:1001F00010204080020102010804020101020408EB
:100200001020408080402010080402018004020178
:1002100080402010080402010804020101020408C1
:1002200010204080010204081020408000000A0BCA
:1002300002090C0D0E080703040100000000000075
:1002400000000000000000000000000000000000AE
:10025000000000000000000012111000000000006B
:10026000000000000000000000000000000000008E
:100270000000000020410000C84200401C4620BC95
:10028000BE4CCA1B0E5AAEC59D74CDCCCC3D0AD710
:10029000233C17B7D13877CC2B329595E6241FB184
:1002A0004F0AE10F11241FBECFEFD1E2DEBFCDBF59
:1002B00000E00CBF23E0A8EBB2E001C01D92A8371C
:1002C000B207E1F712E0A0E0B2E0E6EEF6E200E00D
:1002D0000BBF02C007900D92A83BB107D9F711E000
:1002E000C2E5D1E000E006C021970109802FFE01A0
:1002F0000E94BF12C135D10780E00807A9F70E940C
:100300002B100C9471130C940000282F30E0F9018D
:10031000E45DFD4F9491F901EA51FE4F449120565E
:100320003E4FF9012491222309F435C0992311F19C
:1003300091509231F8F4E92FF0E08827ED55FE4F07
:100340008F4F0C94BF12D401D801B501CC01D0015C
:10035000BA01DB01E101E501EB01EF01F301F90174
:10036000FD01BA01010207020B02809180008F7724
:1003700080938000E22FF0E0EE0FFF1FEA57FE4F60
:10038000A591B4918FB7F894EC91611148C0409554
:100390004E234C938FBF0895809180008F7DE8CFCE
:1003A00080918000877FE4CF84B58F7784BDE2CFD2
:1003B00084B58F7DFBCF8091B0008F778093B000A4
:1003C000D9CF8091B0008F7DF9CF809190008F7749
:1003D00080939000CFCF809190008F7DF9CF809156
:1003E0009000877FF5CF8091A0008F778093A00049
:1003F000C1CF8091A0008F7DF9CF8091A000877F31
:10040000F5CF809120018F7780932001B3CF809129
:1004100020018F7DF9CF80912001877FF5CF4E2B72
:10042000B8CFCF93DF9390E0FC01EA51FE4F2491C7
:1004300080569E4FFC0184918823D1F090E0880F74
:10044000991FFC01E459FE4FA591B491FC01EA57B4
:10045000FE4FC591D491623071F49FB7F8943C91EE
:10046000822F809583238C93E8812E2B28839FBF36
:10047000DF91CF9108958FB7F894EC912E2B2C93A8
:100480008FBFF6CF3FB7F8948091BF029091C00222
:10049000A091C102B091C20226B5A89B05C02F3F12
:1004A00019F00196A11DB11D3FBFBA2FA92F982F9A
:1004B0008827BC01CD01620F711D811D911D42E095
:1004C000660F771F881F991F4A95D1F70895AF923D
:1004D000BF92CF92DF92EF92FF920F931F93CF9331
:1004E000DF936C017B018B01040F151FEB015E0193
:1004F000AE18BF08C017D10759F06991D601ED9128
:10050000FC910190F081E02DC6011995892B79F7B6
:10051000C501DF91CF911F910F91FF90EF90DF9078
:10052000CF90BF90AF900895FC01538D448D252F3F
:1005300030E0842F90E0821B930B541710F0CF967D
:10054000089501970895FC01918D828D981761F0AF
:10055000A28DAE0FBF2FB11D5D968C91928D9F5FC6
:100560009F73928F90E008958FEF9FEF0895FC01A5
:10057000918D828D981731F0828DE80FF11D858D58
:1005800090E008958FEF9FEF0895FC01918D228DEB
:10059000892F90E0805C9F4F821B91098F73992770
:1005A000089583EC92E00E94C50221E0892B09F4B2
:1005B00020E0822F0895FC01A48DA80FB92FB11D52
:1005C000A35ABF4F2C91848D90E001968F73992789
:1005D000848FA689B7892C93A089B1898C91837067
:1005E00080648C93938D848D981306C00288F38960
:1005F000E02D80818F7D80830895EF92FF920F938D
:100600001F93CF93DF93EC0181E0888F9B8D8C8DBE
:1006100098131AC0E889F989808185FF15C09FB7B2
:10062000F894EE89FF896083E889F9898081837075
:10063000806480839FBF81E090E0DF91CF911F9124
:100640000F91FF90EF900895F62E0B8D10E00F5F45
:100650001F4F0F731127E02E8C8D8E110CC00FB61B
:1006600007FCFACFE889F989808185FFF5CFCE01B3
:100670000E94DB02F1CFEB8DEC0FFD2FF11DE35A51
:10068000FF4FF0829FB7F8940B8FEA89FB89808136
:100690008062CFCFCF93DF93EC01888D8823B9F0B0
:1006A000AA89BB89E889F9898C9185FD03C080817D
:1006B00086FD0DC00FB607FCF7CF8C9185FFF2CFFA
:1006C000808185FFEDCFCE010E94DB02E9CFDF9173
:1006D000CF91089581E08093B90208950E94D102DC
:1006E000882319F081E08093B90280E090E0892BA3
:1006F00049F080E090E0892B29F00E9400008111F0
:100700000E94000080E090E0892B49F080E090E0BA
:10071000892B29F00E94000081110E94000080E0D6
:1007200090E0892B49F080E090E0892B29F00E942D
:10073000000081110C9400000895089590E080E07D
:100740000895CF93DF93EC0188819981DC01ED91CD
:10075000FC910190F081E02D19952A813B81820F57
:10076000931F9B838A83DF91CF910895CF93DF936B
:10077000EC0188819981DC01ED91FC910280F3818B
:10078000E02D19952A813B81820F931F9B838A83D9
:10079000DF91CF9108958F929F92AF92BF92CF92A7
:1007A000DF92EF92FF920F931F93CF93DF93CDB71A
:1007B000DEB766970FB6F894DEBF0FBECDBF6C01F3
:1007C0008E01095E1F4F78018AE0882E912CA12CA2
:1007D000B12CCB01BA01A50194010E949D12942F66
:1007E000852F605DF80162938F01A901692F782F31
:1007F000411551056105710561F7A7014E1B5F0B9E
:10080000BF01C6010E94B60366960FB6F894DEBF1C
:100810000FBECDBFDF91CF911F910F91FF90EF9051
:10082000DF90CF90BF90AF909F908F9008958033CE
:100830009CF08A3324F08F3524F08B3724F481E048
:10084000089581344CF08B35D4F393ED980F81E00B
:100850009230B0F380E008958B32B9F7F0CF0F9368
:100860001F93CF93DF93EC018C85811140C00985E4
:100870001A852FB7F8948091BB029091BC02A09189
:10088000BD02B091BE022FBFF80180879187A28779
:10089000B387D801ED91FC910284F385E02DC80166
:1008A000199597FF2AC02FB7F8948091BB029091B9
:1008B000BC02A091BD02B091BE022FBFF8014085DD
:1008C000518562857385841B950BA60BB70B4481FC
:1008D00055816681778184179507A607B707C8F207
:1008E0008FEF9FEF97FD80E08B8781E08C878B8572
:1008F000DF91CF911F910F9108959927F3CF1F9307
:10090000CF93DF93EC01162F0E942F04811306C0B2
:100910001C8681E0DF91CF911F91089580E0FACF8E
:10092000CF93DF93EC01CE010E942F048B303CF477
:1009300089304CF4882349F081E0888710C08D30DD
:1009400011F08032C9F71C86EECF888581110AC06C
:1009500081E090E0C15BDF4F9983888380E0DF9185
:10096000CF91089582E090E0F5CF0895FC012481B5
:100970003581A9014F5F5F4F8681978148175907DD
:1009800048F48281938155834483FC01E20FF31F75
:10099000608308950190F081E02D81E080870895C3
:1009A0009F92AF92BF92CF92DF92EF92FF920F93FE
:1009B0001F93CF93DF9300D01F921F92CDB7DEB766
:1009C0008C010E942F04D82ED8011C961C92F12C69
:1009D000E12C60EFC62EC8010E942F04F801148696
:1009E000D81609F4BDC0811119C0F801E15BFF4FB1
:1009F00082E090E09183808380E00F900F900F90D1
:100A00000F900F90DF91CF911F910F91FF90EF907A
:100A1000DF90CF90BF90AF909F9008958C3509F0F4
:100A20009DC0C8010E942F048823F9F2EAE2F2E097
:100A3000853709F087C0D8011C961C9254E0952E8A
:100A4000B12CA12CC8010E942F04882371F281349B
:100A50004CF48053803148F0F801E15BFF4F83E0B4
:100A600090E0C8CF8F7D8753F5CF44E0AA0CBB1C24
:100A70004A95E1F7A82AF80114869A949110E2CFDA
:100A8000C501985D8115944020F4750123E0F222A0
:100A9000A2CFC5019C5D81159440A8F4B3E0BB22B0
:100AA000B701762F6627770F770F6A297B2990E0A9
:100AB00080E00196603871058105910540F4C80118
:100AC0000E94B60488CFB50190E080E0F3CF198290
:100AD000262F2F7320682A8326E096958795779591
:100AE00067952A95D1F76032710580F4606C6B834D
:100AF0005E01E4E0AE0EB11CD5016E915D0166238E
:100B000009F469CFC8010E94B604F6CF262F2F73CF
:100B100020682B8386E0769567958A95E1F76031AA
:100B2000710538F4606E6C835E01F5E0AF0EB11CA8
:100B3000E3CF60686C83CD825E0126E0A20EB11C1B
:100B4000DBCF32969081992309F486CF8913F9CFB0
:100B50008181882309F480CFF8011486682FAFCFF4
:100B60000190F081E02D8085882331F0F801E15B70
:100B7000FF4F84E090E03ECF81E03FCFCF93DF9303
:100B8000DC01EB01EC81FD818A819B810896E817ED
:100B9000F90740F481E08887F0E0E0E0CF01DF91E1
:100BA000CF9108953897FD83EC833097B9F312966F
:100BB000CD91DC911397209791F0CF018C1B9D0B69
:100BC00023E0959587952A95E1F78D831396FC93FD
:100BD000EE9312971582148217821682DFCF119638
:100BE000FC93EE93F3CFEF92FF920F931F93CF936B
:100BF000DF937C01DC0112962D913C911397ED91CE
:100C0000FC91AB01420F531FEF01C60FD71FC21754
:100C1000D307A0F4888181110BC0E901CF014C17E3
:100C20005D0751F00991DC011D91CD010117B9F368
:100C300081918111FDCFE8CF309751F4620F731F7E
:100C4000CB010196F70193838283DB011C92F901AA
:100C5000CF01DF91CF911F910F91FF90EF900895F9
:100C6000FC012581222339F0F8E02F0290011124A4
:100C7000820F931F089590E080E00895FC01019099
:100C80000020E9F73197AF01481B590BBC0183ECF9
:100C900092E00C946702FB0101900020E9F7319784
:100CA000AF01461B570B0C94B6031F93CF93DF93F2
:100CB000EAE2F2E01281112379F032962181621387
:100CC000F9CFEC016CE50E94A103612FCE01DF9109
:100CD000CF911F910C94A1036111F9CF6BE372E0E6
:100CE000DF91CF911F910C944B062F923F924F9220
:100CF0005F926F927F928F929F92AF92BF92CF92AC
:100D0000DF92EF92FF920F931F93CF93DF93CDB7B4
:100D1000DEB76C970FB6F894DEBF0FBECDBF8C0167
:100D20001B01DC0114968C9114978F77863009F49F
:100D300092C268F58230A0F11296ED90FC90139764
:100D4000CC901196DC90843008F056C2A701B60111
:100D5000C1010E94B603F101828193816C960FB6A6
:100D6000F894DEBF0FBECDBFDF91CF911F910F91E1
:100D7000FF90EF90DF90CF90BF90AF909F908F90BB
:100D80007F906F905F904F903F902F9008958C30A0
:100D900069F160F4883009F459C28A3009F43FC21D
:100DA00062E472E0C1010E944B06E5C1803209F4A1
:100DB000ECC18034A9F76BE5C1010E94A103F801E1
:100DC000008111810115110509F4DAC1B101C801D1
:100DD0000E947506C8010E9430068C01892B09F417
:100DE000CFC16CE2C1010E94A103ECCFF801C08029
:100DF000D180E280F380A7019601C701B6010E946D
:100E00004B118111CDCF20E030E0A901C701B6011F
:100E10000E944B11882379F0A7019601C701B60102
:100E20000E94C8129B01AC01C701B6010E944B1180
:100E3000882309F4B5CF20E030E0A901C701B6014D
:100E40000E944B1187FF08C06DE2C1010E94A103FF
:100E5000F7FAF094F7F8F09420E836E948E15BE41B
:100E6000C701B6010E94631387FD81C074E1A72EFC
:100E7000B12C00E210E0188E1F8AF501EE58FD4FEC
:100E80002591359145915491C701B6010E94631394
:100E900087FD13C0F501E657FD4F2591359145912A
:100EA0005491C701B6010E94B1116B017C012F89D9
:100EB000388D200F311F388F2F8B1595079534E013
:100EC000A31AB1088CEFA8168FEFB806B1F6552417
:100ED0005A9420E030E0A901C701B6010E946313D3
:100EE00018160CF04BC02CEA35EC47E257E3C7016B
:100EF000B6010E944B1118160CF440C0A52DB4E0A9
:100F0000AB02C0011124B12CA12CFC01EC5AFE4F04
:100F10003F019C012E583D4F49013FEF531671F19F
:100F2000F301EA0DFB1D2591359145915491C701BF
:100F3000B6010E944B1187FF13C0F401EA0DFB1D9F
:100F40002591359145915491C701B6010E94B11187
:100F50006B017C018F89988D801B910B988F8F8BF3
:100F6000159507955A9494E0A91AB108D6CF00E2D6
:100F700010E055E0552E188E1F8AABCFC701B60181
:100F80000E9434134B015C012B013C0106E080E41C
:100F900092E4AFE0B0E0898F9A8FAB8FBC8F102FB7
:100FA00001509AE04916510461047104C8F0698D3A
:100FB0007A8D8B8D9C8D2AE030E040E050E00E94DD
:100FC0009D12298F3A8F4B8F5C8FC301B2012AE0AB
:100FD00030E040E050E00E949D1229013A01DFCF4D
:100FE000C501B4010E9450119B01AC01C701B601BB
:100FF0000E94C7126B017C01698D7A8D8B8D9C8D4F
:101000000E9450119B01AC01C701B6010E94B111B1
:101010002B013C010E9434136B017C010E94501192
:101020009B01AC01C301B2010E94C7129B01AC013C
:101030000E94C8120E943413C60ED71EE81EF91E65
:10104000898D9A8DAB8DBC8DC816D906EA06FB0634
:10105000D8F09FEF891A990AA90AB90AAF89B88D01
:10106000AB2B39F1BAE08B169104A104B10408F15D
:10107000EF89F88D3196F88FEF8BC12CD12C76014A
:10108000812C912C540183942AE0422E512C612C06
:10109000712CC701B601A30192010E949D12672B1A
:1010A000682B692B51F4111644F469017A0111502F
:1010B000F0CFC12CD12C7601E7CFB501A401C1013D
:1010C0000E94CB03112371F14E01F1E18F0E911CAF
:1010D000012F54019AE0492E512C612C712C0150A2
:1010E00068F0C701B601A30192010E949D12605DE4
:1010F000D4016E934D0169017A01F1CF812F90E007
:10110000BC0160957095F501E81BF90B31978EE2F3
:10111000808344275527461B570B6A0D7B1DC10151
:101120000E94B603EF89F88DEF2B29F165E6C10126
:101130000E94A1030F89188D17FF07C06DE2C1013E
:101140000E94A103119501951109FE0177969F0157
:101150008AE0E82EF12CC801B7010E948912805D57
:1011600082938B01672BB9F7A9014E1B5F0BBF015F
:10117000C1010E94B603D10112968D919C91EECDD2
:101180006DE5C1010E94A103F6CF6BE7C1010E948A
:10119000A103F801008111810115110559F1D80150
:1011A0001696CC9016971796DC9062E2C1010E94C9
:1011B000A1037601F70161917F01662321F0C1014E
:1011C0000E945506F7CF62E2C1010E94A1036AE3C3
:1011D000C1010E94A103B101C8010E947506C801A6
:1011E0000E9430068C01892B29F06CE2C1010E941B
:1011F000A103D2CF6DE7C5CF62E2C1010E94A10376
:101200008601E00EF11EE016F10639F0F801619159
:101210008F01C1010E945506F6CF62E2B2CFCD9098
:10122000DD90ED90FC90B701A601F7FE0BC06DE2DA
:10123000C1010E94A10344275527BA014C195D0939
:101240006E097F09C1010E94CB0385CD4D915D914F
:101250006D917C91F7CF8C9167E472E0811102C0AF
:101260006CE472E0C1010E944B0675CDCF93DF9311
:10127000EC0160E08E810E94850161E08E810E9418
:10128000850160E08E810E9485018BE891E00197E5
:10129000F1F7DF91CF910895CF92DF92EF92FF9215
:1012A0000F931F93CF93DF936C017C0187E0E80ECF
:1012B000F11CD0E0C0E0062F10E0B8010C2E02C0F7
:1012C000759567950A94E2F76170F70181917F0146
:1012D0000E9485012196C430D10579F7C601DF91BE
:1012E000CF911F910F91FF90EF90DF90CF900C94D2
:1012F0003609CF92DF92EF92FF920F931F93CF9315
:10130000DF93EC01F62E642F8C810E9485018D8184
:101310008F3F19F060E00E9485010F2D10E08F854E
:1013200084FF25C06E0187E0C80ED11CF12CE12C92
:10133000B8010E2C02C0759567950A94E2F76170AA
:10134000F60181916F010E948501FFEFEF1AFF0AFC
:1013500088E0E816F10461F7CE01DF91CF911F918B
:101360000F91FF90EF90DF90CF900C943609B80169
:1013700084E0759567958A95E1F7CE010E944C0946
:101380006F2DCE01DF91CF911F910F91FF90EF90C4
:10139000DF90CF900C944C09CF93DF93823029F4E7
:1013A00090916F03986090936F03809373031092F2
:1013B000740380E48093750380E18093760380E575
:1013C0008093770361E0809164030E941102809111
:1013D00065038F3F19F061E00E94110261E0809186
:1013E00066030E941102C0E6D3E09E0120563340FE
:1013F00080916F0384FD0BC084E090E02196281754
:10140000390744F461E08E810E941102EECF88E03A
:1014100090E0F4CF8BE39DE00197F1F760E08091DD
:1014200064030E94850160E0809166030E9485014B
:10143000809165038F3F19F060E00E948501609103
:101440006F0364FD45C063E080E693E00E944C09B1
:10145000CBE4D6E4CE010197F1F763E080E693E0B8
:101460000E944C092197F1F763E080E693E00E9427
:101470004C0983E592E00197F1F762E080E693E0A2
:101480000E944C0960916F03606240E080E693E047
:101490000E94790984E08093700340E06CE080E66C
:1014A00093E00E94790940E061E080E693E00E94C9
:1014B00079098BE39FE10197F1F782E08093710353
:1014C00040E066E080E693E0DF91CF910C947909EB
:1014D000606240E080E693E00E9479098BE496E444
:1014E0000197F1F760916F03606240E080E693E05E
:1014F0000E94790983E592E00197F1F760916F030B
:10150000606240E080E693E00E947909BBCF41E051
:101510000E94790981E090E008950F931F93CF9383
:10152000DF93D0E0C0E06115710591F08B01FC0103
:10153000C081D181209761F06E817F81C8010E94B6
:101540006813892B29F0CE010E943006EC01F2CFFE
:10155000CE01DF91CF911F910F9108954F925F922D
:101560006F927F92BF92CF92DF92EF92FF920F9392
:101570001F93CF93DF93EC018B01E42E0E94900424
:10158000F82E811110C0F12C8F2DDF91CF911F917A
:101590000F91FF90EF90DF90CF90BF907F906F9072
:1015A0005F904F900895CE010E942F04873209F476
:1015B0002BC10CF5823209F427C1CE010E942F0401
:1015C000B82E6E01FFE0CF0ED11CE12C36018B2D21
:1015D0000E941704882309F443C12FE3E21609F49B
:1015E0003FC11C86E394F601B1926F01CE010E94C7
:1015F0002F04B82EECCF8B3509F44AC08B37E9F6AF
:10160000F801848180788062848311821082138241
:101610001282EE2009F447C01C86CE010E9490047D
:10162000882309F4B0CF6DE7CE010E947F04D82E45
:101630008111AACFCC24C394EA94E881F9818281F4
:1016400093819B838A838481958122813381821B4C
:10165000930B9F838E831D821C82892B09F4C08685
:10166000CE010E942F04873209F45DC0823209F452
:101670005AC0CE010E942F04F82E0E941704811137
:1016800059C0C15BDF4F83E090E09983888350C0ED
:10169000F8018481807880648483118210821382AF
:1016A0001282E11007C0C15BDF4F85E090E09983B3
:1016B000888369CF1C86CE010E949004882309F498
:1016C00062CF6DE5CE010E947F0481115DCFEA9467
:1016D0006D857E85C8010E94BE05009729F4C15B17
:1016E000DF4F84E090E0E3CF4E2DBC01CE010E949D
:1016F000AE0A882309F447CFCE010E9490048823C4
:1017000009F441CF6DE5CE010E947F0481113CCFE9
:101710006CE2CE010E947F048111DACFC15BDF4F02
:1017200083E090E0C4CFCE010E94D004811119C0A3
:10173000FD2C2ACF1C866F2DCE010E94B604CE014F
:101740000E942F04F82E0E9417048111F3CFE88124
:10175000F9818085882329F0C15BDF4F84E090E028
:1017600094CFCE010E949004882311F36AE3CE0146
:101770000E947F04882309F484CFEA81FB818C8155
:101780009D81E80FF91F10826C807D806A817B81CA
:10179000C8010E948D0ABC01892BA1F4B301888184
:1017A00099810E94F3053C016D857E85C8010E94E8
:1017B000BE05FC01892B81F2848180688483778255
:1017C0006682BF014E2DCE010E94AE0A882309F425
:1017D000AFCFCE010E949004882309F4A9CF6DE712
:1017E000CE010E947F0481110DC06CE2CE010E94E7
:1017F0007F04882309F445CFCE010E949004811113
:101800001CCF96CFD82E94CFE881F9818281938125
:101810009B838A838481958122813381821B930BF0
:101820009F838E831D821C82892B11F481E0808727
:10183000CE010E94D004F82E882309F4A4CECC80D7
:10184000DD80B601888199810E94F305F801248129
:1018500020782560248391838083D382C28294CEB2
:10186000FE01EE0DF11D17868F85843781F4F80196
:10187000848180788660848381E08083F4E0EF1641
:1018800009F482CEC15BDF4F82E090E010CF863654
:1018900041F4F80184818078866084831082F5E0C9
:1018A000EECF8E3621F424E0E212ECCF6DCE8B32F7
:1018B000D9F1F3018D32D1F5FE017096BF2C8081F4
:1018C00090ED980F9A3018F08E3209F027CF6F0103
:1018D00060E070E0CB01F6012191A0ED4A2E420EAE
:1018E00039E0341528F16A3949E97407840749E178
:1018F000940740F5AAE0B0E09B01AC010E946F1292
:10190000512C712C612CA3019201209530954095AA
:1019100050952617370748075907A0F0640D751D25
:10192000861D971D6F01D7CFFE017096B12CC7CFD2
:10193000211108C0BB2071F161307105810550E8AB
:101940009507A0F0E12CEAE04E2E512C612C712C71
:1019500061157105F0E88F07910530F1A30192013F
:101960000E949D12CA01B901E394F2CFF8012481CB
:1019700020782A6024839B01AC0188279927DC0109
:10198000821B930BA40BB50B80839183A283B3833B
:10199000FB2CFACDF8012481207828602483608311
:1019A000718382839383F0CDD601F60121916F017B
:1019B00030ED320F3A3010F4E394F6CF2E32F1F4DA
:1019C000FD013196DF0131962C9150EDD52ED20ECE
:1019D00029E02D1598F06C3C3CEC73073CE0830744
:1019E000910580F7AAE0B0E09B01AC010E946F1264
:1019F0006D0D711D811D911DEA94E4CF2C912F7DF9
:101A0000253409F08CC011962C9111972D32D9F5FF
:101A100012967F2CFD0130E020E0CE2C0E2C000C25
:101A2000DD084AE0542EDF01619040ED460D4A305A
:101A300008F043C0529EA001539E500D1124262D44
:101A4000660C330B20533109240F351FA601420FBA
:101A5000531F473251053CF3F80184817720D1F0C0
:101A600040E050E060E070E8B11003C040E050E0BA
:101A7000BA0180788C60F80184834083518362834B
:101A80007383F72C81CD2B3219F01196712CC2CFB4
:101A90001296FCCF40E050E060E87FEFB11004C048
:101AA00040E050E060E87FE780788C60F801848354
:101AB000408351836283738367CD772019F031951A
:101AC000219531094C91411129CEE901CE0DD11D4D
:101AD000E7FCDA950E9450111C161D061CF5E12C3E
:101AE000C0FF0CC024E0E29EF0011124EE58FD4F2F
:101AF00025913591459154910E94B111D595C79585
:101B0000E394209769F7B1109058F8012481207868
:101B10002C602483608371838283938335CD30E08E
:101B200020E0D0CFD195C195D109E12C209759F370
:101B3000C0FF0CC044E0E49EF0011124E657FD4FC5
:101B400025913591459154910E94B111D595C79534
:101B5000E394ECCFEF92FF920F931F93CF93DF9319
:101B6000EC018C81982F9F7739F4807880628C8388
:101B7000198218821B821A828C8185FF1DC0611513
:101B80007105D1F07A018B01CE010E948D0A009778
:101B900061F4B701CE010E94BE05009731F0FC014F
:101BA00024812F77248317830683DF91CF911F91A0
:101BB0000F91FF90EF90089590E080E0F6CFCF92E4
:101BC000DF92EF92FF920F931F93CF93DF93CDB7E6
:101BD000DEB7C650D2400FB6F894DEBF0FBECDBF01
:101BE000CE010F969A8389839C838B838E010D5F30
:101BF0001D4F1E830D8318870F8319861E868FB78E
:101C0000F894C090BB02D090BC02E090BD02F0906E
:101C1000BE028FBFAE014F5F5F4F62E572E0CE0143
:101C20000A960E94AA0DFC01892B41F094819078BC
:101C300098609483C082D182E282F382AE014F5FCA
:101C40005F4F67E572E0CE010A960E94AA0DFC0183
:101C5000892B41F0948190789A609483108211824C
:101C60001282138283EC92E0F801918380831382C5
:101C70001282B801CE010A960E9475068EE592E0A6
:101C80000E943E061092B802CA5FDD4F0FB6F8946C
:101C9000DEBF0FBECDBFDF91CF911F910F91FF909F
:101CA000EF90DF90CF9008950F931F93CF93DF9322
:101CB000CDB7DEB7C356D2400FB6F894DEBF0FBE25
:101CC000CDBFCE010F969A8389839C838B8383E05B
:101CD00092E08C0F9D1F9E838D8398878F8319863A
:101CE0001E8682509240C45ADD4F99838883CC551A
:101CF000D24028E0FE01E45AFD4FDE01AC5ABD4F50
:101D000001900D922A95E1F728E0FE01EC5AFD4F73
:101D1000DE01AD5FBD4F01900D922A95E1F7C55FE1
:101D2000DD4F1882CB50D24023EC32E0C45FDD4F50
:101D300039832883CC50D240C15FDD4F1882CF5009
:101D4000D240C05FDD4F99838883C051D240CE5AC4
:101D5000DD4F19821882C255D2404AE0BE01665F4B
:101D60007F4F8E5F9D4F0E94AE0ACE5ADD4F088195
:101D70001981C255D2400115110501F5C25FDD4F31
:101D80008881CE50D2408823C9F08E8583FF16C04B
:101D90001092B90203E010E081E692E00E943E0654
:101DA000000F111FF801E050FE4F808191810097D4
:101DB000C9F58EE592E00E943E0608C01092B90275
:101DC0000115110549F78E8585FD0CC0CD59DD4FF4
:101DD0000FB6F894DEBF0FBECDBFDF91CF911F913C
:101DE0000F91089568E772E0CE010A960E948D0A6D
:101DF000009761F3FC0184818F7741F368E772E01B
:101E0000CE010A960E948D0AFC01892B71F1948102
:101E10009F77983009F148F4992339F19630B1F061
:101E200011E015C00E943E06C4CF9A30A9F09C3044
:101E3000B9F711E020E030E0A90160817181828171
:101E400093810E944B11811102C00FC01081612F3C
:101E500087E00E948501BACF11E080819181A28143
:101E6000B381892B8A2B8B2B91F710E0F0CF1F9237
:101E70000F920FB60F9211242F933F938F939F933E
:101E8000AF93BF938091BB029091BC02A091BD0221
:101E9000B091BE023091BA0223E0230F2D3758F5DE
:101EA0000196A11DB11D2093BA028093BB029093AD
:101EB000BC02A093BD02B093BE028091BF0290917C
:101EC000C002A091C102B091C2020196A11DB11D34
:101ED0008093BF029093C002A093C102B093C2024C
:101EE000BF91AF919F918F913F912F910F900FBE16
:101EF0000F901F90189526E8230F0296A11DB11D83
:101F0000D2CF1F920F920FB60F9211240BB60F92E1
:101F10002F933F934F935F936F937F938F939F93F1
:101F2000AF93BF93EF93FF9383EC92E00E94DB02A9
:101F3000FF91EF91BF91AF919F918F917F916F91A1
:101F40005F914F913F912F910F900BBE0F900FBE5D
:101F50000F901F9018951F920F920FB60F92112499
:101F60000BB60F922F938F939F93EF93FF93E09174
:101F7000D302F091D4028081E091D902F091DA028B
:101F800082FD1DC090818091DC028F5F8F73209154
:101F9000DD02821741F0E091DC02F0E0ED53FD4FED
:101FA000958F8093DC02FF91EF919F918F912F91FC
:101FB0000F900BBE0F900FBE0F901F901895808151
:101FC000F2CFE3ECF2E01382128288EE93E0A0E01D
:101FD000B0E084839583A683B78380E192E0918308
:101FE000808385EC90E09587848784EC90E09787E8
:101FF000868780EC90E0918B808B81EC90E0938BD6
:10200000828B82EC90E0958B848B86EC90E0978BB2
:10201000868B118E128E138E148EE0E6F3E01382FF
:10202000128282E292E0918380838CE084838FEF3E
:1020300085838BE0868385E0878384E0808783E0E7
:10204000818782E082871386148615861686178616
:1020500081E00C94CC09789484B5826084BD84B509
:10206000816084BD85B5826085BD85B5816085BD93
:1020700080916E00816080936E001092810080914B
:1020800081008260809381008091810081608093D3
:102090008100809180008160809380008091B100F8
:1020A00084608093B1008091B00081608093B00023
:1020B0008091910082608093910080919100816075
:1020C0008093910080919000816080939000809136
:1020D000A10082608093A1008091A1008160809323
:1020E000A1008091A00081608093A00080912101D7
:1020F0008260809321018091210181608093210180
:102100008091200181608093200180917A00846019
:1021100080937A0080917A00826080937A00809127
:102120007A00816080937A0080917A008068809341
:102130007A001092C100E091D302F091D40282E0C3
:102140008083E091CF02F091D0021082E091D10221
:10215000F091D20280E180831092DB02E091D702FD
:10216000F091D80286E08083E091D502F091D6020A
:10217000808180618083E091D502F091D6028081D8
:1021800088608083E091D502F091D60280818068DA
:102190008083E091D502F091D60280818F7D80838B
:1021A00061E087E00E94110260E087E00E94850103
:1021B00061E086E10E94110261E088E10E94110263
:1021C00061E08AE10E94110261E08CE10E9411024B
:1021D00061E08EE10E94110261E080E20E94110242
:1021E00061E082E20E94110261E084E20E94110239
:1021F00061E086E20E94110261E088E20E94110221
:1022000062E082E30E94110262E083E30E94110215
:1022100062E084E30E94110262E085E30E94110201
:1022200061E08AE20E94110282E00E94CC0961E032
:1022300081E20E9411028091B902882321F00E945C
:10224000540E0E94DF0D0E9442024B015C0180E5AA
:10225000C82E83ECD82EE12CF12C0E944202681982
:1022600079098A099B09683E734081059105A8F3A5
:1022700021E0C21AD108E108F10888EE880E83E057
:10228000981EA11CB11CC114D104E104F10429F76A
:102290000E946E03D0CF0E948D1108F481E0089552
:1022A000E89409C097FB3EF49095809570956195F0
:1022B0007F4F8F4F9F4F9923A9F0F92F96E9BB27A6
:1022C0009395F695879577956795B795F111F8CF22
:1022D000FAF4BB0F11F460FF1BC06F5F7F4F8F4F8D
:1022E0009F4F16C0882311F096E911C0772321F083
:1022F0009EE8872F762F05C0662371F096E8862F1B
:1023000070E060E02AF09A95660F771F881FDAF771
:10231000880F9695879597F90895990F0008550F9E
:10232000AA0BE0E8FEEF16161706E807F907C0F05B
:1023300012161306E407F50798F0621B730B840B63
:10234000950B39F40A2661F0232B242B252B21F43D
:1023500008950A2609F4A140A6958FEF811D811DDD
:1023600008950E94C4110C9435120E94271238F06F
:102370000E942E1220F0952311F00C941E120C9442
:10238000241211240C9469120E94461270F3959F36
:10239000C1F3950F50E0551F629FF001729FBB275C
:1023A000F00DB11D639FAA27F00DB11DAA1F649FF8
:1023B0006627B00DA11D661F829F2227B00DA11DAB
:1023C000621F739FB00DA11D621F839FA00D611D31
:1023D000221F749F3327A00D611D231F849F600D52
:1023E000211D822F762F6A2F11249F5750409AF07B
:1023F000F1F088234AF0EE0FFF1FBB1F661F771F07
:10240000881F91505040A9F79E3F510580F00C94D1
:102410001E120C9469125F3FE4F3983ED4F3869544
:1024200077956795B795F795E7959F5FC1F7FE2B71
:10243000880F911D9695879597F9089597F99F674D
:1024400080E870E060E008959FEF80EC089500243C
:102450000A941616170618060906089500240A9409
:1024600012161306140605060895092E0394000C8F
:1024700011F4882352F0BB0F40F4BF2B11F460FF1E
:1024800004C06F5F7F4F8F4F9F4F089557FD905847
:10249000440F551F59F05F3F71F04795880F97FB28
:1024A000991F61F09F3F79F08795089512161306E2
:1024B0001406551FF2CF4695F1DF08C01616170611
:1024C0001806991FF1CF8695710561050894089546
:1024D000E894BB2766277727CB0197F908950E94D8
:1024E0007A12A59F900DB49F900DA49F800D911D11
:1024F00011240895A29FB001B39FC001A39F700D46
:10250000811D1124911DB29F700D811D1124911DFB
:102510000895AA1BBB1B51E107C0AA1FBB1FA6172A
:10252000B70710F0A61BB70B881F991F5A95A9F77C
:1025300080959095BC01CD010895A1E21A2EAA1BA9
:10254000BB1BFD010DC0AA1FBB1FEE1FFF1FA21763
:10255000B307E407F50720F0A21BB30BE40BF50B60
:10256000661F771F881F991F1A9469F760957095E9
:10257000809590959B01AC01BD01CF010895EE0FB0
:10258000FF1F881F8BBF0790F691E02D19945058BC
:10259000BB27AA270E94DF120C9435120E94271233
:1025A00038F00E942E1220F039F49F3F19F426F4DF
:1025B0000C9424120EF4E095E7FB0C941E12E92F04
:1025C0000E94461258F3BA176207730784079507EB
:1025D00020F079F4A6F50C9468120EF4E0950B2E19
:1025E000BA2FA02D0B01B90190010C01CA01A00165
:1025F0001124FF27591B99F0593F50F4503E68F1C0
:102600001A16F040A22F232F342F4427585FF3CF00
:10261000469537952795A795F0405395C9F77EF4D1
:102620001F16BA0B620B730B840BBAF09150A1F01A
:10263000FF0FBB1F661F771F881FC2F70EC0BA0FA0
:10264000621F731F841F48F4879577956795B79528
:10265000F7959E3F08F0B0CF9395880F08F0992723
:10266000EE0F9795879508950E944E1288F09F5718
:1026700098F0B92F9927B751B0F0E1F0660F771FA6
:10268000881F991F1AF0BA95C9F714C0B13091F09C
:102690000E946812B1E008950C946812672F782F99
:1026A0008827B85F39F0B93FCCF386957795679561
:1026B000B395D9F73EF490958095709561957F4FCD
:1026C0008F4F9F4F08950E948D1108F48FEF08954A
:1026D000FB01DC018D91019080190110D9F3990B58
:0626E0000895F894FFCFFD
:1026E6007C027F028A029A02A702B0020000000062
:1026F600FD02670294024A03C502A302B702000064
:102706000000870A67029E039D032F2F22225C5C2E
:102716006208660C6E0A720D7409005C7530303002
:1027260030006E756C6C00747275650066616C7352
:10273600650074696D6500616E616C6F67000D0AF6
:1027460000646573657269616C697A65282920661B
:1027560061696C65643A20006C6564004F6B0045E6
:102766006D707479496E70757400496E636F6D7023
:102776006C657465496E70757400496E76616C6936
:1027860064496E707574004E6F4D656D6F72790099
:08279600546F6F44656570008B
:00000001FF
